{
  "contractName": "NFTMarketplace",
  "abi": [
    {
      "inputs": [],
      "stateMutability": "nonpayable",
      "type": "constructor"
    },
    {
      "anonymous": false,
      "inputs": [
        {
          "indexed": false,
          "internalType": "address",
          "name": "nftContract",
          "type": "address"
        },
        {
          "indexed": false,
          "internalType": "uint256",
          "name": "tokenId",
          "type": "uint256"
        },
        {
          "indexed": false,
          "internalType": "address",
          "name": "seller",
          "type": "address"
        },
        {
          "indexed": false,
          "internalType": "address",
          "name": "owner",
          "type": "address"
        },
        {
          "indexed": false,
          "internalType": "uint256",
          "name": "price",
          "type": "uint256"
        }
      ],
      "name": "NFTListed",
      "type": "event"
    },
    {
      "anonymous": false,
      "inputs": [
        {
          "indexed": false,
          "internalType": "address",
          "name": "nftContract",
          "type": "address"
        },
        {
          "indexed": false,
          "internalType": "uint256",
          "name": "tokenId",
          "type": "uint256"
        },
        {
          "indexed": false,
          "internalType": "address",
          "name": "seller",
          "type": "address"
        },
        {
          "indexed": false,
          "internalType": "address",
          "name": "owner",
          "type": "address"
        },
        {
          "indexed": false,
          "internalType": "uint256",
          "name": "price",
          "type": "uint256"
        }
      ],
      "name": "NFTSold",
      "type": "event"
    },
    {
      "inputs": [],
      "name": "LISTING_FEE",
      "outputs": [
        {
          "internalType": "uint256",
          "name": "",
          "type": "uint256"
        }
      ],
      "stateMutability": "view",
      "type": "function",
      "constant": true
    },
    {
      "inputs": [
        {
          "internalType": "address",
          "name": "_nftContract",
          "type": "address"
        },
        {
          "internalType": "uint256",
          "name": "_tokenId",
          "type": "uint256"
        },
        {
          "internalType": "string",
          "name": "_name",
          "type": "string"
        },
        {
          "internalType": "string",
          "name": "_tokenURI",
          "type": "string"
        }
      ],
      "name": "listNft",
      "outputs": [],
      "stateMutability": "payable",
      "type": "function",
      "payable": true
    },
    {
      "inputs": [
        {
          "internalType": "address",
          "name": "_nftContract",
          "type": "address"
        },
        {
          "internalType": "uint256",
          "name": "_tokenId",
          "type": "uint256"
        }
      ],
      "name": "buyNFT",
      "outputs": [],
      "stateMutability": "payable",
      "type": "function",
      "payable": true
    },
    {
      "inputs": [
        {
          "internalType": "address",
          "name": "_nftContract",
          "type": "address"
        },
        {
          "internalType": "uint256",
          "name": "_tokenId",
          "type": "uint256"
        }
      ],
      "name": "resellNft",
      "outputs": [],
      "stateMutability": "payable",
      "type": "function",
      "payable": true
    },
    {
      "inputs": [],
      "name": "getListingFee",
      "outputs": [
        {
          "internalType": "uint256",
          "name": "",
          "type": "uint256"
        }
      ],
      "stateMutability": "view",
      "type": "function",
      "constant": true
    },
    {
      "inputs": [
        {
          "internalType": "uint256",
          "name": "_tokenId",
          "type": "uint256"
        }
      ],
      "name": "getTokenForId",
      "outputs": [
        {
          "components": [
            {
              "internalType": "address",
              "name": "nftContract",
              "type": "address"
            },
            {
              "internalType": "uint256",
              "name": "tokenId",
              "type": "uint256"
            },
            {
              "internalType": "address payable",
              "name": "seller",
              "type": "address"
            },
            {
              "internalType": "address payable",
              "name": "owner",
              "type": "address"
            },
            {
              "internalType": "string",
              "name": "tokenURI",
              "type": "string"
            },
            {
              "internalType": "string",
              "name": "name",
              "type": "string"
            },
            {
              "internalType": "uint256",
              "name": "price",
              "type": "uint256"
            },
            {
              "internalType": "bool",
              "name": "isListed",
              "type": "bool"
            }
          ],
          "internalType": "struct NFTMarketplace.Token",
          "name": "",
          "type": "tuple"
        }
      ],
      "stateMutability": "view",
      "type": "function",
      "constant": true
    },
    {
      "inputs": [],
      "name": "getMarketPlaceBalance",
      "outputs": [
        {
          "internalType": "uint256",
          "name": "",
          "type": "uint256"
        }
      ],
      "stateMutability": "view",
      "type": "function",
      "constant": true
    },
    {
      "inputs": [],
      "name": "getItemsCount",
      "outputs": [
        {
          "internalType": "uint256",
          "name": "",
          "type": "uint256"
        }
      ],
      "stateMutability": "view",
      "type": "function",
      "constant": true
    },
    {
      "inputs": [],
      "name": "getItemsSold",
      "outputs": [
        {
          "internalType": "uint256",
          "name": "",
          "type": "uint256"
        }
      ],
      "stateMutability": "view",
      "type": "function",
      "constant": true
    }
  ],
  "bytecode": "0x6080604052655af3107a400060035534801561001a57600080fd5b50600160008190555033600460006101000a81548173ffffffffffffffffffffffffffffffffffffffff021916908373ffffffffffffffffffffffffffffffffffffffff160217905550611c3c806100736000396000f3fe6080604052600436106100865760003560e01c806355360dff1161005957806355360dff1461013a578063a82ba76f14610156578063b4c49d0914610172578063b8fe6abe1461019d578063c4b15141146101c857610086565b80632444a8a61461008b5780632b86ae38146100c8578063512dd020146100f35780635322b0ef1461011e575b600080fd5b34801561009757600080fd5b506100b260048036038101906100ad919061102e565b6101f3565b6040516100bf919061122e565b60405180910390f35b3480156100d457600080fd5b506100dd610476565b6040516100ea919061125f565b60405180910390f35b3480156100ff57600080fd5b5061010861047c565b604051610115919061125f565b60405180910390f35b610138600480360381019061013391906113db565b61048d565b005b610154600480360381019061014f919061147a565b6107f5565b005b610170600480360381019061016b919061147a565b610a86565b005b34801561017e57600080fd5b50610187610eb8565b604051610194919061125f565b60405180910390f35b3480156101a957600080fd5b506101b2610ec0565b6040516101bf919061125f565b60405180910390f35b3480156101d457600080fd5b506101dd610eca565b6040516101ea919061125f565b60405180910390f35b6101fb610f5b565b60056000838152602001908152602001600020604051806101000160405290816000820160009054906101000a900473ffffffffffffffffffffffffffffffffffffffff1673ffffffffffffffffffffffffffffffffffffffff1673ffffffffffffffffffffffffffffffffffffffff168152602001600182015481526020016002820160009054906101000a900473ffffffffffffffffffffffffffffffffffffffff1673ffffffffffffffffffffffffffffffffffffffff1673ffffffffffffffffffffffffffffffffffffffff1681526020016003820160009054906101000a900473ffffffffffffffffffffffffffffffffffffffff1673ffffffffffffffffffffffffffffffffffffffff1673ffffffffffffffffffffffffffffffffffffffff168152602001600482018054610336906114e9565b80601f0160208091040260200160405190810160405280929190818152602001828054610362906114e9565b80156103af5780601f10610384576101008083540402835291602001916103af565b820191906000526020600020905b81548152906001019060200180831161039257829003601f168201915b505050505081526020016005820180546103c8906114e9565b80601f01602080910402602001604051908101604052809291908181526020018280546103f4906114e9565b80156104415780601f1061041657610100808354040283529160200191610441565b820191906000526020600020905b81548152906001019060200180831161042457829003601f168201915b50505050508152602001600682015481526020016007820160009054906101000a900460ff1615151515815250509050919050565b60035481565b60006104886002610edb565b905090565b6002600054036104d2576040517f08c379a00000000000000000000000000000000000000000000000000000000081526004016104c990611577565b60405180910390fd5b60026000819055506000341161051d576040517f08c379a0000000000000000000000000000000000000000000000000000000008152600401610514906115e3565b60405180910390fd5b6003543414610561576040517f08c379a00000000000000000000000000000000000000000000000000000000081526004016105589061164f565b60405180910390fd5b8373ffffffffffffffffffffffffffffffffffffffff166323b872dd3330866040518463ffffffff1660e01b815260040161059e9392919061167e565b600060405180830381600087803b1580156105b857600080fd5b505af11580156105cc573d6000803e3d6000fd5b505050506105da6002610ee9565b6040518061010001604052808573ffffffffffffffffffffffffffffffffffffffff1681526020018481526020013373ffffffffffffffffffffffffffffffffffffffff1681526020013073ffffffffffffffffffffffffffffffffffffffff1681526020018281526020018381526020016003548152602001600115158152506005600085815260200190815260200160002060008201518160000160006101000a81548173ffffffffffffffffffffffffffffffffffffffff021916908373ffffffffffffffffffffffffffffffffffffffff1602179055506020820151816001015560408201518160020160006101000a81548173ffffffffffffffffffffffffffffffffffffffff021916908373ffffffffffffffffffffffffffffffffffffffff16021790555060608201518160030160006101000a81548173ffffffffffffffffffffffffffffffffffffffff021916908373ffffffffffffffffffffffffffffffffffffffff16021790555060808201518160040190816107629190611861565b5060a08201518160050190816107789190611861565b5060c0820151816006015560e08201518160070160006101000a81548160ff0219169083151502179055509050507fa0c6c0d02d86fdacecbaa5fdf5894bab204e31a778250474108540733a9b8d19848433306003546040516107df959493929190611933565b60405180910390a1600160008190555050505050565b60026000540361083a576040517f08c379a000000000000000000000000000000000000000000000000000000000815260040161083190611577565b60405180910390fd5b600260008190555060008273ffffffffffffffffffffffffffffffffffffffff16636352211e836040518263ffffffff1660e01b815260040161087d919061125f565b602060405180830381865afa15801561089a573d6000803e3d6000fd5b505050506040513d601f19601f820116820180604052508101906108be919061199b565b90506003543414610904576040517f08c379a00000000000000000000000000000000000000000000000000000000081526004016108fb9061164f565b60405180910390fd5b8273ffffffffffffffffffffffffffffffffffffffff166323b872dd8230856040518463ffffffff1660e01b81526004016109419392919061167e565b600060405180830381600087803b15801561095b57600080fd5b505af115801561096f573d6000803e3d6000fd5b505050506000600560008481526020019081526020016000209050338160020160006101000a81548173ffffffffffffffffffffffffffffffffffffffff021916908373ffffffffffffffffffffffffffffffffffffffff160217905550308160030160006101000a81548173ffffffffffffffffffffffffffffffffffffffff021916908373ffffffffffffffffffffffffffffffffffffffff16021790555060018160070160006101000a81548160ff021916908315150217905550610a376001610eff565b7fa0c6c0d02d86fdacecbaa5fdf5894bab204e31a778250474108540733a9b8d1984843330600354604051610a70959493929190611933565b60405180910390a1505060016000819055505050565b600260005403610acb576040517f08c379a0000000000000000000000000000000000000000000000000000000008152600401610ac290611577565b60405180910390fd5b600260008190555060008273ffffffffffffffffffffffffffffffffffffffff16636352211e836040518263ffffffff1660e01b8152600401610b0e919061125f565b602060405180830381865afa158015610b2b573d6000803e3d6000fd5b505050506040513d601f19601f82011682018060405250810190610b4f919061199b565b905060006005600084815260200190815260200160002090508060060154341015610baf576040517f08c379a0000000000000000000000000000000000000000000000000000000008152600401610ba690611a3a565b60405180910390fd5b60003390508160020160009054906101000a900473ffffffffffffffffffffffffffffffffffffffff1673ffffffffffffffffffffffffffffffffffffffff166108fc349081150290604051600060405180830381858888f19350505050158015610c1e573d6000803e3d6000fd5b508473ffffffffffffffffffffffffffffffffffffffff1663a22cb4658260016040518363ffffffff1660e01b8152600401610c5b929190611abe565b600060405180830381600087803b158015610c7557600080fd5b505af1158015610c89573d6000803e3d6000fd5b505050508473ffffffffffffffffffffffffffffffffffffffff1663095ea7b382866040518363ffffffff1660e01b8152600401610cc8929190611ae7565b600060405180830381600087803b158015610ce257600080fd5b505af1158015610cf6573d6000803e3d6000fd5b505050508473ffffffffffffffffffffffffffffffffffffffff166323b872dd848385600101546040518463ffffffff1660e01b8152600401610d3b93929190611b10565b600060405180830381600087803b158015610d5557600080fd5b505af1158015610d69573d6000803e3d6000fd5b50505050600460009054906101000a900473ffffffffffffffffffffffffffffffffffffffff1673ffffffffffffffffffffffffffffffffffffffff166108fc6003549081150290604051600060405180830381858888f19350505050158015610dd7573d6000803e3d6000fd5b50808260030160006101000a81548173ffffffffffffffffffffffffffffffffffffffff021916908373ffffffffffffffffffffffffffffffffffffffff16021790555060008260070160006101000a81548160ff021916908315150217905550610e426001610ee9565b7f16f1dbd97e6bf646d429ed186cce832f1f7fd9907814293b83181e9970ab7bd28583600101548460020160009054906101000a900473ffffffffffffffffffffffffffffffffffffffff168434604051610ea1959493929190611b47565b60405180910390a150505060016000819055505050565b600047905090565b6000600354905090565b6000610ed66001610edb565b905090565b600081600001549050919050565b6001816000016000828254019250508190555050565b60008160000154905060008111610f4b576040517f08c379a0000000000000000000000000000000000000000000000000000000008152600401610f4290611be6565b60405180910390fd5b6001810382600001819055505050565b604051806101000160405280600073ffffffffffffffffffffffffffffffffffffffff16815260200160008152602001600073ffffffffffffffffffffffffffffffffffffffff168152602001600073ffffffffffffffffffffffffffffffffffffffff1681526020016060815260200160608152602001600081526020016000151581525090565b6000604051905090565b600080fd5b600080fd5b6000819050919050565b61100b81610ff8565b811461101657600080fd5b50565b60008135905061102881611002565b92915050565b60006020828403121561104457611043610fee565b5b600061105284828501611019565b91505092915050565b600073ffffffffffffffffffffffffffffffffffffffff82169050919050565b60006110868261105b565b9050919050565b6110968161107b565b82525050565b6110a581610ff8565b82525050565b60006110b68261105b565b9050919050565b6110c6816110ab565b82525050565b600081519050919050565b600082825260208201905092915050565b60005b838110156111065780820151818401526020810190506110eb565b60008484015250505050565b6000601f19601f8301169050919050565b600061112e826110cc565b61113881856110d7565b93506111488185602086016110e8565b61115181611112565b840191505092915050565b60008115159050919050565b6111718161115c565b82525050565b600061010083016000830151611190600086018261108d565b5060208301516111a3602086018261109c565b5060408301516111b660408601826110bd565b5060608301516111c960608601826110bd565b50608083015184820360808601526111e18282611123565b91505060a083015184820360a08601526111fb8282611123565b91505060c083015161121060c086018261109c565b5060e083015161122360e0860182611168565b508091505092915050565b600060208201905081810360008301526112488184611177565b905092915050565b61125981610ff8565b82525050565b60006020820190506112746000830184611250565b92915050565b6112838161107b565b811461128e57600080fd5b50565b6000813590506112a08161127a565b92915050565b600080fd5b600080fd5b7f4e487b7100000000000000000000000000000000000000000000000000000000600052604160045260246000fd5b6112e882611112565b810181811067ffffffffffffffff82111715611307576113066112b0565b5b80604052505050565b600061131a610fe4565b905061132682826112df565b919050565b600067ffffffffffffffff821115611346576113456112b0565b5b61134f82611112565b9050602081019050919050565b82818337600083830152505050565b600061137e6113798461132b565b611310565b90508281526020810184848401111561139a576113996112ab565b5b6113a584828561135c565b509392505050565b600082601f8301126113c2576113c16112a6565b5b81356113d284826020860161136b565b91505092915050565b600080600080608085870312156113f5576113f4610fee565b5b600061140387828801611291565b945050602061141487828801611019565b935050604085013567ffffffffffffffff81111561143557611434610ff3565b5b611441878288016113ad565b925050606085013567ffffffffffffffff81111561146257611461610ff3565b5b61146e878288016113ad565b91505092959194509250565b6000806040838503121561149157611490610fee565b5b600061149f85828601611291565b92505060206114b085828601611019565b9150509250929050565b7f4e487b7100000000000000000000000000000000000000000000000000000000600052602260045260246000fd5b6000600282049050600182168061150157607f821691505b602082108103611514576115136114ba565b5b50919050565b600082825260208201905092915050565b7f5265656e7472616e637947756172643a207265656e7472616e742063616c6c00600082015250565b6000611561601f8361151a565b915061156c8261152b565b602082019050919050565b6000602082019050818103600083015261159081611554565b9050919050565b7f5072696365206d757374206265206174206c6561737420312077656900000000600082015250565b60006115cd601c8361151a565b91506115d882611597565b602082019050919050565b600060208201905081810360008301526115fc816115c0565b9050919050565b7f4e6f7420656e6f75676820657468657220666f72206c697374696e6720666565600082015250565b600061163960208361151a565b915061164482611603565b602082019050919050565b600060208201905081810360008301526116688161162c565b9050919050565b6116788161107b565b82525050565b6000606082019050611693600083018661166f565b6116a0602083018561166f565b6116ad6040830184611250565b949350505050565b60008190508160005260206000209050919050565b60006020601f8301049050919050565b600082821b905092915050565b6000600883026117177fffffffffffffffffffffffffffffffffffffffffffffffffffffffffffffffff826116da565b61172186836116da565b95508019841693508086168417925050509392505050565b6000819050919050565b600061175e61175961175484610ff8565b611739565b610ff8565b9050919050565b6000819050919050565b61177883611743565b61178c61178482611765565b8484546116e7565b825550505050565b600090565b6117a1611794565b6117ac81848461176f565b505050565b5b818110156117d0576117c5600082611799565b6001810190506117b2565b5050565b601f821115611815576117e6816116b5565b6117ef846116ca565b810160208510156117fe578190505b61181261180a856116ca565b8301826117b1565b50505b505050565b600082821c905092915050565b60006118386000198460080261181a565b1980831691505092915050565b60006118518383611827565b9150826002028217905092915050565b61186a826110cc565b67ffffffffffffffff811115611883576118826112b0565b5b61188d82546114e9565b6118988282856117d4565b600060209050601f8311600181146118cb57600084156118b9578287015190505b6118c38582611845565b86555061192b565b601f1984166118d9866116b5565b60005b82811015611901578489015182556001820191506020850194506020810190506118dc565b8683101561191e578489015161191a601f891682611827565b8355505b6001600288020188555050505b505050505050565b600060a082019050611948600083018861166f565b6119556020830187611250565b611962604083018661166f565b61196f606083018561166f565b61197c6080830184611250565b9695505050505050565b6000815190506119958161127a565b92915050565b6000602082840312156119b1576119b0610fee565b5b60006119bf84828501611986565b91505092915050565b7f4e6f7420656e6f75676820657468657220746f20636f7665722061736b696e6760008201527f2070726963650000000000000000000000000000000000000000000000000000602082015250565b6000611a2460268361151a565b9150611a2f826119c8565b604082019050919050565b60006020820190508181036000830152611a5381611a17565b9050919050565b6000611a75611a70611a6b8461105b565b611739565b61105b565b9050919050565b6000611a8782611a5a565b9050919050565b6000611a9982611a7c565b9050919050565b611aa981611a8e565b82525050565b611ab88161115c565b82525050565b6000604082019050611ad36000830185611aa0565b611ae06020830184611aaf565b9392505050565b6000604082019050611afc6000830185611aa0565b611b096020830184611250565b9392505050565b6000606082019050611b25600083018661166f565b611b326020830185611aa0565b611b3f6040830184611250565b949350505050565b600060a082019050611b5c600083018861166f565b611b696020830187611250565b611b766040830186611aa0565b611b836060830185611aa0565b611b906080830184611250565b9695505050505050565b7f436f756e7465723a2064656372656d656e74206f766572666c6f770000000000600082015250565b6000611bd0601b8361151a565b9150611bdb82611b9a565b602082019050919050565b60006020820190508181036000830152611bff81611bc3565b905091905056fea2646970667358221220f420a43b266ddebc0622725ca83788a87458f5fc9f4dd0fdd5d1bf3f63f6658064736f6c63430008110033",
  "immutableReferences": {},
  "source": "// SPDX-License-Identifier: MIT\npragma solidity ^0.8.0;\n\nimport \"./@openzeppelin/contracts/utils/Counters.sol\";\nimport \"./@openzeppelin/contracts/token/ERC721/ERC721.sol\";\nimport \"./@openzeppelin/contracts/security/ReentrancyGuard.sol\";\n\ncontract NFTMarketplace is ReentrancyGuard {\n  using Counters for Counters.Counter;\n  Counters.Counter private _nftsSold;\n  Counters.Counter private _nftCount;\n  uint256 public LISTING_FEE = 0.0001 ether;\n  address payable private _marketOwner;\n  mapping(uint256 => Token) private _idToToken;\n\n  struct Token {\n       address nftContract;\n       uint256 tokenId;\n       address payable seller;\n       address payable owner;\n       string tokenURI;\n       string name;\n       uint256 price;\n       bool isListed;\n   }\n\n  event NFTListed(\n    address nftContract,\n    uint256 tokenId,\n    address seller,\n    address owner,\n    uint256 price\n  );\n  event NFTSold(\n    address nftContract,\n    uint256 tokenId,\n    address seller,\n    address owner,\n    uint256 price\n  );\n\n  constructor() {\n    _marketOwner = payable(msg.sender);\n  }\n\n\n  // List the NFT on the marketplace\n  function listNft(address _nftContract, uint256 _tokenId, string memory _name, string memory _tokenURI) public payable nonReentrant {\n    require(msg.value > 0, \"Price must be at least 1 wei\");\n    require(msg.value == LISTING_FEE, \"Not enough ether for listing fee\");\n\n    IERC721(_nftContract).transferFrom(msg.sender, address(this), _tokenId);\n\n    _nftCount.increment();\n\n    _idToToken[_tokenId] = Token(\n      _nftContract,\n      _tokenId, \n      payable(msg.sender),\n      payable(address(this)),\n      _tokenURI, \n      _name, \n      LISTING_FEE,\n      true\n    );\n\n    emit NFTListed(_nftContract, _tokenId, msg.sender, address(this), LISTING_FEE);\n  }\n\n  // Buy an NFT\n  function buyNFT(address _nftContract, uint256 _tokenId) public payable nonReentrant {\n    address owner = IERC721(_nftContract).ownerOf(_tokenId);\n    Token storage nft = _idToToken[_tokenId];\n    require(msg.value >= nft.price, \"Not enough ether to cover asking price\");\n\n    address payable buyer = payable(msg.sender);\n    payable(nft.seller).transfer(msg.value);\n\n    IERC721(_nftContract).setApprovalForAll(buyer, true);\n    IERC721(_nftContract).approve(buyer, _tokenId);\n\n    IERC721(_nftContract).transferFrom(owner, buyer, nft.tokenId);\n\n\n    _marketOwner.transfer(LISTING_FEE);\n    nft.owner = buyer;\n    nft.isListed = false;\n\n    _nftsSold.increment();\n    emit NFTSold(_nftContract, nft.tokenId, nft.seller, buyer, msg.value);\n  }\n\n  // Resell an NFT purchased from the marketplace\n  function resellNft(address _nftContract, uint256 _tokenId) public payable nonReentrant {\n    address owner = IERC721(_nftContract).ownerOf(_tokenId);\n    require(msg.value == LISTING_FEE, \"Not enough ether for listing fee\");\n    IERC721(_nftContract).transferFrom(owner, address(this), _tokenId);\n\n    Token storage nft = _idToToken[_tokenId];\n    nft.seller = payable(msg.sender);\n    nft.owner = payable(address(this));\n    nft.isListed = true;\n\n    _nftsSold.decrement();\n    emit NFTListed(_nftContract, _tokenId, msg.sender, address(this), LISTING_FEE);\n  }\n\n  function getListingFee() public view returns (uint256) {\n    return LISTING_FEE;\n  }\n\n  function getTokenForId(uint256 _tokenId) public view returns (Token memory) {\n       return _idToToken[_tokenId];\n   }\n\n   function getMarketPlaceBalance() public view returns(uint256) {\n       //https://docs.soliditylang.org/en/develop/units-and-global-variables.html#address-related\n       return address(this).balance;\n   }\n\n   function getItemsCount() public view returns(uint256) {\n       return _nftCount.current();\n   }\n   function getItemsSold() public view returns(uint256) {\n       return _nftsSold.current();\n   }\n}\n",
  "sourcePath": "/Users/sandy/Documents/Udemy/MARKETPLACE/contracts/Marketplace.sol",
  "compiler": {
    "name": "solc",
    "version": "0.8.17+commit.8df45f5f.Emscripten.clang"
  },
  "schemaVersion": "3.4.7",
  "updatedAt": "2022-10-28T21:47:50.456Z",
  "networkType": "ethereum",
  "devdoc": {
    "kind": "dev",
    "methods": {},
    "version": 1
  },
  "userdoc": {
    "kind": "user",
    "methods": {},
    "version": 1
  }
}