{
  "contractName": "TruffleNFT",
  "abi": [
    {
      "inputs": [
        {
          "internalType": "address",
          "name": "_marketplaceContract",
          "type": "address"
        }
      ],
      "stateMutability": "nonpayable",
      "type": "constructor"
    },
    {
      "anonymous": false,
      "inputs": [
        {
          "indexed": true,
          "internalType": "address",
          "name": "owner",
          "type": "address"
        },
        {
          "indexed": true,
          "internalType": "address",
          "name": "approved",
          "type": "address"
        },
        {
          "indexed": true,
          "internalType": "uint256",
          "name": "tokenId",
          "type": "uint256"
        }
      ],
      "name": "Approval",
      "type": "event"
    },
    {
      "anonymous": false,
      "inputs": [
        {
          "indexed": true,
          "internalType": "address",
          "name": "owner",
          "type": "address"
        },
        {
          "indexed": true,
          "internalType": "address",
          "name": "operator",
          "type": "address"
        },
        {
          "indexed": false,
          "internalType": "bool",
          "name": "approved",
          "type": "bool"
        }
      ],
      "name": "ApprovalForAll",
      "type": "event"
    },
    {
      "anonymous": false,
      "inputs": [
        {
          "indexed": false,
          "internalType": "uint256",
          "name": "",
          "type": "uint256"
        }
      ],
      "name": "NFTMinted",
      "type": "event"
    },
    {
      "anonymous": false,
      "inputs": [
        {
          "indexed": true,
          "internalType": "address",
          "name": "from",
          "type": "address"
        },
        {
          "indexed": true,
          "internalType": "address",
          "name": "to",
          "type": "address"
        },
        {
          "indexed": true,
          "internalType": "uint256",
          "name": "tokenId",
          "type": "uint256"
        }
      ],
      "name": "Transfer",
      "type": "event"
    },
    {
      "inputs": [
        {
          "internalType": "address",
          "name": "to",
          "type": "address"
        },
        {
          "internalType": "uint256",
          "name": "tokenId",
          "type": "uint256"
        }
      ],
      "name": "approve",
      "outputs": [],
      "stateMutability": "nonpayable",
      "type": "function"
    },
    {
      "inputs": [
        {
          "internalType": "address",
          "name": "owner",
          "type": "address"
        }
      ],
      "name": "balanceOf",
      "outputs": [
        {
          "internalType": "uint256",
          "name": "",
          "type": "uint256"
        }
      ],
      "stateMutability": "view",
      "type": "function"
    },
    {
      "inputs": [
        {
          "internalType": "uint256",
          "name": "tokenId",
          "type": "uint256"
        }
      ],
      "name": "getApproved",
      "outputs": [
        {
          "internalType": "address",
          "name": "",
          "type": "address"
        }
      ],
      "stateMutability": "view",
      "type": "function"
    },
    {
      "inputs": [
        {
          "internalType": "address",
          "name": "owner",
          "type": "address"
        },
        {
          "internalType": "address",
          "name": "operator",
          "type": "address"
        }
      ],
      "name": "isApprovedForAll",
      "outputs": [
        {
          "internalType": "bool",
          "name": "",
          "type": "bool"
        }
      ],
      "stateMutability": "view",
      "type": "function"
    },
    {
      "inputs": [],
      "name": "name",
      "outputs": [
        {
          "internalType": "string",
          "name": "",
          "type": "string"
        }
      ],
      "stateMutability": "view",
      "type": "function"
    },
    {
      "inputs": [
        {
          "internalType": "uint256",
          "name": "tokenId",
          "type": "uint256"
        }
      ],
      "name": "ownerOf",
      "outputs": [
        {
          "internalType": "address",
          "name": "",
          "type": "address"
        }
      ],
      "stateMutability": "view",
      "type": "function"
    },
    {
      "inputs": [
        {
          "internalType": "address",
          "name": "from",
          "type": "address"
        },
        {
          "internalType": "address",
          "name": "to",
          "type": "address"
        },
        {
          "internalType": "uint256",
          "name": "tokenId",
          "type": "uint256"
        }
      ],
      "name": "safeTransferFrom",
      "outputs": [],
      "stateMutability": "nonpayable",
      "type": "function"
    },
    {
      "inputs": [
        {
          "internalType": "address",
          "name": "from",
          "type": "address"
        },
        {
          "internalType": "address",
          "name": "to",
          "type": "address"
        },
        {
          "internalType": "uint256",
          "name": "tokenId",
          "type": "uint256"
        },
        {
          "internalType": "bytes",
          "name": "data",
          "type": "bytes"
        }
      ],
      "name": "safeTransferFrom",
      "outputs": [],
      "stateMutability": "nonpayable",
      "type": "function"
    },
    {
      "inputs": [
        {
          "internalType": "address",
          "name": "operator",
          "type": "address"
        },
        {
          "internalType": "bool",
          "name": "approved",
          "type": "bool"
        }
      ],
      "name": "setApprovalForAll",
      "outputs": [],
      "stateMutability": "nonpayable",
      "type": "function"
    },
    {
      "inputs": [
        {
          "internalType": "bytes4",
          "name": "interfaceId",
          "type": "bytes4"
        }
      ],
      "name": "supportsInterface",
      "outputs": [
        {
          "internalType": "bool",
          "name": "",
          "type": "bool"
        }
      ],
      "stateMutability": "view",
      "type": "function"
    },
    {
      "inputs": [],
      "name": "symbol",
      "outputs": [
        {
          "internalType": "string",
          "name": "",
          "type": "string"
        }
      ],
      "stateMutability": "view",
      "type": "function"
    },
    {
      "inputs": [
        {
          "internalType": "uint256",
          "name": "tokenId",
          "type": "uint256"
        }
      ],
      "name": "tokenURI",
      "outputs": [
        {
          "internalType": "string",
          "name": "",
          "type": "string"
        }
      ],
      "stateMutability": "view",
      "type": "function"
    },
    {
      "inputs": [
        {
          "internalType": "address",
          "name": "from",
          "type": "address"
        },
        {
          "internalType": "address",
          "name": "to",
          "type": "address"
        },
        {
          "internalType": "uint256",
          "name": "tokenId",
          "type": "uint256"
        }
      ],
      "name": "transferFrom",
      "outputs": [],
      "stateMutability": "nonpayable",
      "type": "function"
    },
    {
      "inputs": [
        {
          "internalType": "string",
          "name": "_tokenURI",
          "type": "string"
        }
      ],
      "name": "mint",
      "outputs": [],
      "stateMutability": "nonpayable",
      "type": "function"
    },
    {
      "inputs": [],
      "name": "getCurrentToken",
      "outputs": [
        {
          "internalType": "uint256",
          "name": "",
          "type": "uint256"
        }
      ],
      "stateMutability": "view",
      "type": "function"
    }
  ],
  "bytecode": "0x60806040523480156200001157600080fd5b506040516200303d3803806200303d83398181016040528101906200003791906200017b565b6040518060400160405280600a81526020017f53616e6479546f6b656e000000000000000000000000000000000000000000008152506040518060400160405280600881526020017f53616e6479544b4e0000000000000000000000000000000000000000000000008152508160009081620000b4919062000427565b508060019081620000c6919062000427565b50505080600860006101000a81548173ffffffffffffffffffffffffffffffffffffffff021916908373ffffffffffffffffffffffffffffffffffffffff160217905550506200050e565b600080fd5b600073ffffffffffffffffffffffffffffffffffffffff82169050919050565b6000620001438262000116565b9050919050565b620001558162000136565b81146200016157600080fd5b50565b60008151905062000175816200014a565b92915050565b60006020828403121562000194576200019362000111565b5b6000620001a48482850162000164565b91505092915050565b600081519050919050565b7f4e487b7100000000000000000000000000000000000000000000000000000000600052604160045260246000fd5b7f4e487b7100000000000000000000000000000000000000000000000000000000600052602260045260246000fd5b600060028204905060018216806200022f57607f821691505b602082108103620002455762000244620001e7565b5b50919050565b60008190508160005260206000209050919050565b60006020601f8301049050919050565b600082821b905092915050565b600060088302620002af7fffffffffffffffffffffffffffffffffffffffffffffffffffffffffffffffff8262000270565b620002bb868362000270565b95508019841693508086168417925050509392505050565b6000819050919050565b6000819050919050565b60006200030862000302620002fc84620002d3565b620002dd565b620002d3565b9050919050565b6000819050919050565b6200032483620002e7565b6200033c62000333826200030f565b8484546200027d565b825550505050565b600090565b6200035362000344565b6200036081848462000319565b505050565b5b8181101562000388576200037c60008262000349565b60018101905062000366565b5050565b601f821115620003d757620003a1816200024b565b620003ac8462000260565b81016020851015620003bc578190505b620003d4620003cb8562000260565b83018262000365565b50505b505050565b600082821c905092915050565b6000620003fc60001984600802620003dc565b1980831691505092915050565b6000620004178383620003e9565b9150826002028217905092915050565b6200043282620001ad565b67ffffffffffffffff8111156200044e576200044d620001b8565b5b6200045a825462000216565b620004678282856200038c565b600060209050601f8311600181146200049f57600084156200048a578287015190505b62000496858262000409565b86555062000506565b601f198416620004af866200024b565b60005b82811015620004d957848901518255600182019150602085019450602081019050620004b2565b86831015620004f95784890151620004f5601f891682620003e9565b8355505b6001600288020188555050505b505050505050565b612b1f806200051e6000396000f3fe608060405234801561001057600080fd5b50600436106100f55760003560e01c806370a0823111610097578063c87b56dd11610066578063c87b56dd14610282578063d85d3d27146102b2578063e985e9c5146102ce578063ef2d1746146102fe576100f5565b806370a08231146101fc57806395d89b411461022c578063a22cb4651461024a578063b88d4fde14610266576100f5565b8063095ea7b3116100d3578063095ea7b31461017857806323b872dd1461019457806342842e0e146101b05780636352211e146101cc576100f5565b806301ffc9a7146100fa57806306fdde031461012a578063081812fc14610148575b600080fd5b610114600480360381019061010f91906118b1565b61031c565b60405161012191906118f9565b60405180910390f35b6101326103fe565b60405161013f91906119a4565b60405180910390f35b610162600480360381019061015d91906119fc565b610490565b60405161016f9190611a6a565b60405180910390f35b610192600480360381019061018d9190611ab1565b6104d6565b005b6101ae60048036038101906101a99190611af1565b6105ed565b005b6101ca60048036038101906101c59190611af1565b61064d565b005b6101e660048036038101906101e191906119fc565b61066d565b6040516101f39190611a6a565b60405180910390f35b61021660048036038101906102119190611b44565b61071e565b6040516102239190611b80565b60405180910390f35b6102346107d5565b60405161024191906119a4565b60405180910390f35b610264600480360381019061025f9190611bc7565b610867565b005b610280600480360381019061027b9190611d3c565b61087d565b005b61029c600480360381019061029791906119fc565b6108df565b6040516102a991906119a4565b60405180910390f35b6102cc60048036038101906102c79190611e60565b6109f1565b005b6102e860048036038101906102e39190611ea9565b610a85565b6040516102f591906118f9565b60405180910390f35b610306610b19565b6040516103139190611b80565b60405180910390f35b60007f80ac58cd000000000000000000000000000000000000000000000000000000007bffffffffffffffffffffffffffffffffffffffffffffffffffffffff1916827bffffffffffffffffffffffffffffffffffffffffffffffffffffffff191614806103e757507f5b5e139f000000000000000000000000000000000000000000000000000000007bffffffffffffffffffffffffffffffffffffffffffffffffffffffff1916827bffffffffffffffffffffffffffffffffffffffffffffffffffffffff1916145b806103f757506103f682610b2a565b5b9050919050565b60606000805461040d90611f18565b80601f016020809104026020016040519081016040528092919081815260200182805461043990611f18565b80156104865780601f1061045b57610100808354040283529160200191610486565b820191906000526020600020905b81548152906001019060200180831161046957829003601f168201915b5050505050905090565b600061049b82610b94565b6004600083815260200190815260200160002060009054906101000a900473ffffffffffffffffffffffffffffffffffffffff169050919050565b60006104e18261066d565b90508073ffffffffffffffffffffffffffffffffffffffff168373ffffffffffffffffffffffffffffffffffffffff1603610551576040517f08c379a000000000000000000000000000000000000000000000000000000000815260040161054890611fbb565b60405180910390fd5b8073ffffffffffffffffffffffffffffffffffffffff16610570610bdf565b73ffffffffffffffffffffffffffffffffffffffff16148061059f575061059e81610599610bdf565b610a85565b5b6105de576040517f08c379a00000000000000000000000000000000000000000000000000000000081526004016105d59061204d565b60405180910390fd5b6105e88383610be7565b505050565b6105fe6105f8610bdf565b82610ca0565b61063d576040517f08c379a0000000000000000000000000000000000000000000000000000000008152600401610634906120df565b60405180910390fd5b610648838383610d35565b505050565b6106688383836040518060200160405280600081525061087d565b505050565b6000806002600084815260200190815260200160002060009054906101000a900473ffffffffffffffffffffffffffffffffffffffff169050600073ffffffffffffffffffffffffffffffffffffffff168173ffffffffffffffffffffffffffffffffffffffff1603610715576040517f08c379a000000000000000000000000000000000000000000000000000000000815260040161070c9061214b565b60405180910390fd5b80915050919050565b60008073ffffffffffffffffffffffffffffffffffffffff168273ffffffffffffffffffffffffffffffffffffffff160361078e576040517f08c379a0000000000000000000000000000000000000000000000000000000008152600401610785906121dd565b60405180910390fd5b600360008373ffffffffffffffffffffffffffffffffffffffff1673ffffffffffffffffffffffffffffffffffffffff168152602001908152602001600020549050919050565b6060600180546107e490611f18565b80601f016020809104026020016040519081016040528092919081815260200182805461081090611f18565b801561085d5780601f106108325761010080835404028352916020019161085d565b820191906000526020600020905b81548152906001019060200180831161084057829003601f168201915b5050505050905090565b610879610872610bdf565b8383610f9b565b5050565b61088e610888610bdf565b83610ca0565b6108cd576040517f08c379a00000000000000000000000000000000000000000000000000000000081526004016108c4906120df565b60405180910390fd5b6108d984848484611107565b50505050565b60606108ea82610b94565b600060066000848152602001908152602001600020805461090a90611f18565b80601f016020809104026020016040519081016040528092919081815260200182805461093690611f18565b80156109835780601f1061095857610100808354040283529160200191610983565b820191906000526020600020905b81548152906001019060200180831161096657829003601f168201915b505050505090506000610994611163565b905060008151036109a95781925050506109ec565b6000825111156109de5780826040516020016109c6929190612239565b604051602081830303815290604052925050506109ec565b6109e78461117a565b925050505b919050565b60006109fd60076111e2565b9050610a0960076111f0565b610a133382611206565b610a1d8183611224565b610a4a600860009054906101000a900473ffffffffffffffffffffffffffffffffffffffff166001610867565b7fd9dc24857f317ed9abbbb42e920ede0104231eb1d3d70236a74887ffaf15986881604051610a799190611b80565b60405180910390a15050565b6000600560008473ffffffffffffffffffffffffffffffffffffffff1673ffffffffffffffffffffffffffffffffffffffff16815260200190815260200160002060008373ffffffffffffffffffffffffffffffffffffffff1673ffffffffffffffffffffffffffffffffffffffff16815260200190815260200160002060009054906101000a900460ff16905092915050565b6000610b2560076111e2565b905090565b60007f01ffc9a7000000000000000000000000000000000000000000000000000000007bffffffffffffffffffffffffffffffffffffffffffffffffffffffff1916827bffffffffffffffffffffffffffffffffffffffffffffffffffffffff1916149050919050565b610b9d81611291565b610bdc576040517f08c379a0000000000000000000000000000000000000000000000000000000008152600401610bd39061214b565b60405180910390fd5b50565b600033905090565b816004600083815260200190815260200160002060006101000a81548173ffffffffffffffffffffffffffffffffffffffff021916908373ffffffffffffffffffffffffffffffffffffffff160217905550808273ffffffffffffffffffffffffffffffffffffffff16610c5a8361066d565b73ffffffffffffffffffffffffffffffffffffffff167f8c5be1e5ebec7d5bd14f71427d1e84f3dd0314c0f7b2291e5b200ac8c7c3b92560405160405180910390a45050565b600080610cac8361066d565b90508073ffffffffffffffffffffffffffffffffffffffff168473ffffffffffffffffffffffffffffffffffffffff161480610cee5750610ced8185610a85565b5b80610d2c57508373ffffffffffffffffffffffffffffffffffffffff16610d1484610490565b73ffffffffffffffffffffffffffffffffffffffff16145b91505092915050565b8273ffffffffffffffffffffffffffffffffffffffff16610d558261066d565b73ffffffffffffffffffffffffffffffffffffffff1614610dab576040517f08c379a0000000000000000000000000000000000000000000000000000000008152600401610da2906122cf565b60405180910390fd5b600073ffffffffffffffffffffffffffffffffffffffff168273ffffffffffffffffffffffffffffffffffffffff1603610e1a576040517f08c379a0000000000000000000000000000000000000000000000000000000008152600401610e1190612361565b60405180910390fd5b610e258383836112fd565b610e30600082610be7565b6001600360008573ffffffffffffffffffffffffffffffffffffffff1673ffffffffffffffffffffffffffffffffffffffff1681526020019081526020016000206000828254610e8091906123b0565b925050819055506001600360008473ffffffffffffffffffffffffffffffffffffffff1673ffffffffffffffffffffffffffffffffffffffff1681526020019081526020016000206000828254610ed791906123e4565b92505081905550816002600083815260200190815260200160002060006101000a81548173ffffffffffffffffffffffffffffffffffffffff021916908373ffffffffffffffffffffffffffffffffffffffff160217905550808273ffffffffffffffffffffffffffffffffffffffff168473ffffffffffffffffffffffffffffffffffffffff167fddf252ad1be2c89b69c2b068fc378daa952ba7f163c4a11628f55a4df523b3ef60405160405180910390a4610f96838383611302565b505050565b8173ffffffffffffffffffffffffffffffffffffffff168373ffffffffffffffffffffffffffffffffffffffff1603611009576040517f08c379a000000000000000000000000000000000000000000000000000000000815260040161100090612464565b60405180910390fd5b80600560008573ffffffffffffffffffffffffffffffffffffffff1673ffffffffffffffffffffffffffffffffffffffff16815260200190815260200160002060008473ffffffffffffffffffffffffffffffffffffffff1673ffffffffffffffffffffffffffffffffffffffff16815260200190815260200160002060006101000a81548160ff0219169083151502179055508173ffffffffffffffffffffffffffffffffffffffff168373ffffffffffffffffffffffffffffffffffffffff167f17307eab39ab6107e8899845ad3d59bd9653f200f220920489ca2b5937696c31836040516110fa91906118f9565b60405180910390a3505050565b611112848484610d35565b61111e84848484611307565b61115d576040517f08c379a0000000000000000000000000000000000000000000000000000000008152600401611154906124f6565b60405180910390fd5b50505050565b606060405180602001604052806000815250905090565b606061118582610b94565b600061118f611163565b905060008151116111af57604051806020016040528060008152506111da565b806111b98461148e565b6040516020016111ca929190612239565b6040516020818303038152906040525b915050919050565b600081600001549050919050565b6001816000016000828254019250508190555050565b6112208282604051806020016040528060008152506115ee565b5050565b61122d82611291565b61126c576040517f08c379a000000000000000000000000000000000000000000000000000000000815260040161126390612588565b60405180910390fd5b8060066000848152602001908152602001600020908161128c9190612754565b505050565b60008073ffffffffffffffffffffffffffffffffffffffff166002600084815260200190815260200160002060009054906101000a900473ffffffffffffffffffffffffffffffffffffffff1673ffffffffffffffffffffffffffffffffffffffff1614159050919050565b505050565b505050565b60006113288473ffffffffffffffffffffffffffffffffffffffff16611649565b15611481578373ffffffffffffffffffffffffffffffffffffffff1663150b7a02611351610bdf565b8786866040518563ffffffff1660e01b8152600401611373949392919061287b565b6020604051808303816000875af19250505080156113af57506040513d601f19601f820116820180604052508101906113ac91906128dc565b60015b611431573d80600081146113df576040519150601f19603f3d011682016040523d82523d6000602084013e6113e4565b606091505b506000815103611429576040517f08c379a0000000000000000000000000000000000000000000000000000000008152600401611420906124f6565b60405180910390fd5b805181602001fd5b63150b7a0260e01b7bffffffffffffffffffffffffffffffffffffffffffffffffffffffff1916817bffffffffffffffffffffffffffffffffffffffffffffffffffffffff191614915050611486565b600190505b949350505050565b6060600082036114d5576040518060400160405280600181526020017f300000000000000000000000000000000000000000000000000000000000000081525090506115e9565b600082905060005b600082146115075780806114f090612909565b915050600a826115009190612980565b91506114dd565b60008167ffffffffffffffff81111561152357611522611c11565b5b6040519080825280601f01601f1916602001820160405280156115555781602001600182028036833780820191505090505b5090505b600085146115e25760018261156e91906123b0565b9150600a8561157d91906129b1565b603061158991906123e4565b60f81b81838151811061159f5761159e6129e2565b5b60200101907effffffffffffffffffffffffffffffffffffffffffffffffffffffffffffff1916908160001a905350600a856115db9190612980565b9450611559565b8093505050505b919050565b6115f8838361166c565b6116056000848484611307565b611644576040517f08c379a000000000000000000000000000000000000000000000000000000000815260040161163b906124f6565b60405180910390fd5b505050565b6000808273ffffffffffffffffffffffffffffffffffffffff163b119050919050565b600073ffffffffffffffffffffffffffffffffffffffff168273ffffffffffffffffffffffffffffffffffffffff16036116db576040517f08c379a00000000000000000000000000000000000000000000000000000000081526004016116d290612a5d565b60405180910390fd5b6116e481611291565b15611724576040517f08c379a000000000000000000000000000000000000000000000000000000000815260040161171b90612ac9565b60405180910390fd5b611730600083836112fd565b6001600360008473ffffffffffffffffffffffffffffffffffffffff1673ffffffffffffffffffffffffffffffffffffffff168152602001908152602001600020600082825461178091906123e4565b92505081905550816002600083815260200190815260200160002060006101000a81548173ffffffffffffffffffffffffffffffffffffffff021916908373ffffffffffffffffffffffffffffffffffffffff160217905550808273ffffffffffffffffffffffffffffffffffffffff16600073ffffffffffffffffffffffffffffffffffffffff167fddf252ad1be2c89b69c2b068fc378daa952ba7f163c4a11628f55a4df523b3ef60405160405180910390a461184160008383611302565b5050565b6000604051905090565b600080fd5b600080fd5b60007fffffffff0000000000000000000000000000000000000000000000000000000082169050919050565b61188e81611859565b811461189957600080fd5b50565b6000813590506118ab81611885565b92915050565b6000602082840312156118c7576118c661184f565b5b60006118d58482850161189c565b91505092915050565b60008115159050919050565b6118f3816118de565b82525050565b600060208201905061190e60008301846118ea565b92915050565b600081519050919050565b600082825260208201905092915050565b60005b8381101561194e578082015181840152602081019050611933565b60008484015250505050565b6000601f19601f8301169050919050565b600061197682611914565b611980818561191f565b9350611990818560208601611930565b6119998161195a565b840191505092915050565b600060208201905081810360008301526119be818461196b565b905092915050565b6000819050919050565b6119d9816119c6565b81146119e457600080fd5b50565b6000813590506119f6816119d0565b92915050565b600060208284031215611a1257611a1161184f565b5b6000611a20848285016119e7565b91505092915050565b600073ffffffffffffffffffffffffffffffffffffffff82169050919050565b6000611a5482611a29565b9050919050565b611a6481611a49565b82525050565b6000602082019050611a7f6000830184611a5b565b92915050565b611a8e81611a49565b8114611a9957600080fd5b50565b600081359050611aab81611a85565b92915050565b60008060408385031215611ac857611ac761184f565b5b6000611ad685828601611a9c565b9250506020611ae7858286016119e7565b9150509250929050565b600080600060608486031215611b0a57611b0961184f565b5b6000611b1886828701611a9c565b9350506020611b2986828701611a9c565b9250506040611b3a868287016119e7565b9150509250925092565b600060208284031215611b5a57611b5961184f565b5b6000611b6884828501611a9c565b91505092915050565b611b7a816119c6565b82525050565b6000602082019050611b956000830184611b71565b92915050565b611ba4816118de565b8114611baf57600080fd5b50565b600081359050611bc181611b9b565b92915050565b60008060408385031215611bde57611bdd61184f565b5b6000611bec85828601611a9c565b9250506020611bfd85828601611bb2565b9150509250929050565b600080fd5b600080fd5b7f4e487b7100000000000000000000000000000000000000000000000000000000600052604160045260246000fd5b611c498261195a565b810181811067ffffffffffffffff82111715611c6857611c67611c11565b5b80604052505050565b6000611c7b611845565b9050611c878282611c40565b919050565b600067ffffffffffffffff821115611ca757611ca6611c11565b5b611cb08261195a565b9050602081019050919050565b82818337600083830152505050565b6000611cdf611cda84611c8c565b611c71565b905082815260208101848484011115611cfb57611cfa611c0c565b5b611d06848285611cbd565b509392505050565b600082601f830112611d2357611d22611c07565b5b8135611d33848260208601611ccc565b91505092915050565b60008060008060808587031215611d5657611d5561184f565b5b6000611d6487828801611a9c565b9450506020611d7587828801611a9c565b9350506040611d86878288016119e7565b925050606085013567ffffffffffffffff811115611da757611da6611854565b5b611db387828801611d0e565b91505092959194509250565b600067ffffffffffffffff821115611dda57611dd9611c11565b5b611de38261195a565b9050602081019050919050565b6000611e03611dfe84611dbf565b611c71565b905082815260208101848484011115611e1f57611e1e611c0c565b5b611e2a848285611cbd565b509392505050565b600082601f830112611e4757611e46611c07565b5b8135611e57848260208601611df0565b91505092915050565b600060208284031215611e7657611e7561184f565b5b600082013567ffffffffffffffff811115611e9457611e93611854565b5b611ea084828501611e32565b91505092915050565b60008060408385031215611ec057611ebf61184f565b5b6000611ece85828601611a9c565b9250506020611edf85828601611a9c565b9150509250929050565b7f4e487b7100000000000000000000000000000000000000000000000000000000600052602260045260246000fd5b60006002820490506001821680611f3057607f821691505b602082108103611f4357611f42611ee9565b5b50919050565b7f4552433732313a20617070726f76616c20746f2063757272656e74206f776e6560008201527f7200000000000000000000000000000000000000000000000000000000000000602082015250565b6000611fa560218361191f565b9150611fb082611f49565b604082019050919050565b60006020820190508181036000830152611fd481611f98565b9050919050565b7f4552433732313a20617070726f76652063616c6c6572206973206e6f7420746f60008201527f6b656e206f776e6572206e6f7220617070726f76656420666f7220616c6c0000602082015250565b6000612037603e8361191f565b915061204282611fdb565b604082019050919050565b600060208201905081810360008301526120668161202a565b9050919050565b7f4552433732313a2063616c6c6572206973206e6f7420746f6b656e206f776e6560008201527f72206e6f7220617070726f766564000000000000000000000000000000000000602082015250565b60006120c9602e8361191f565b91506120d48261206d565b604082019050919050565b600060208201905081810360008301526120f8816120bc565b9050919050565b7f4552433732313a20696e76616c696420746f6b656e2049440000000000000000600082015250565b600061213560188361191f565b9150612140826120ff565b602082019050919050565b6000602082019050818103600083015261216481612128565b9050919050565b7f4552433732313a2061646472657373207a65726f206973206e6f74206120766160008201527f6c6964206f776e65720000000000000000000000000000000000000000000000602082015250565b60006121c760298361191f565b91506121d28261216b565b604082019050919050565b600060208201905081810360008301526121f6816121ba565b9050919050565b600081905092915050565b600061221382611914565b61221d81856121fd565b935061222d818560208601611930565b80840191505092915050565b60006122458285612208565b91506122518284612208565b91508190509392505050565b7f4552433732313a207472616e736665722066726f6d20696e636f72726563742060008201527f6f776e6572000000000000000000000000000000000000000000000000000000602082015250565b60006122b960258361191f565b91506122c48261225d565b604082019050919050565b600060208201905081810360008301526122e8816122ac565b9050919050565b7f4552433732313a207472616e7366657220746f20746865207a65726f2061646460008201527f7265737300000000000000000000000000000000000000000000000000000000602082015250565b600061234b60248361191f565b9150612356826122ef565b604082019050919050565b6000602082019050818103600083015261237a8161233e565b9050919050565b7f4e487b7100000000000000000000000000000000000000000000000000000000600052601160045260246000fd5b60006123bb826119c6565b91506123c6836119c6565b92508282039050818111156123de576123dd612381565b5b92915050565b60006123ef826119c6565b91506123fa836119c6565b925082820190508082111561241257612411612381565b5b92915050565b7f4552433732313a20617070726f766520746f2063616c6c657200000000000000600082015250565b600061244e60198361191f565b915061245982612418565b602082019050919050565b6000602082019050818103600083015261247d81612441565b9050919050565b7f4552433732313a207472616e7366657220746f206e6f6e20455243373231526560008201527f63656976657220696d706c656d656e7465720000000000000000000000000000602082015250565b60006124e060328361191f565b91506124eb82612484565b604082019050919050565b6000602082019050818103600083015261250f816124d3565b9050919050565b7f45524337323155524953746f726167653a2055524920736574206f66206e6f6e60008201527f6578697374656e7420746f6b656e000000000000000000000000000000000000602082015250565b6000612572602e8361191f565b915061257d82612516565b604082019050919050565b600060208201905081810360008301526125a181612565565b9050919050565b60008190508160005260206000209050919050565b60006020601f8301049050919050565b600082821b905092915050565b60006008830261260a7fffffffffffffffffffffffffffffffffffffffffffffffffffffffffffffffff826125cd565b61261486836125cd565b95508019841693508086168417925050509392505050565b6000819050919050565b600061265161264c612647846119c6565b61262c565b6119c6565b9050919050565b6000819050919050565b61266b83612636565b61267f61267782612658565b8484546125da565b825550505050565b600090565b612694612687565b61269f818484612662565b505050565b5b818110156126c3576126b860008261268c565b6001810190506126a5565b5050565b601f821115612708576126d9816125a8565b6126e2846125bd565b810160208510156126f1578190505b6127056126fd856125bd565b8301826126a4565b50505b505050565b600082821c905092915050565b600061272b6000198460080261270d565b1980831691505092915050565b6000612744838361271a565b9150826002028217905092915050565b61275d82611914565b67ffffffffffffffff81111561277657612775611c11565b5b6127808254611f18565b61278b8282856126c7565b600060209050601f8311600181146127be57600084156127ac578287015190505b6127b68582612738565b86555061281e565b601f1984166127cc866125a8565b60005b828110156127f4578489015182556001820191506020850194506020810190506127cf565b86831015612811578489015161280d601f89168261271a565b8355505b6001600288020188555050505b505050505050565b600081519050919050565b600082825260208201905092915050565b600061284d82612826565b6128578185612831565b9350612867818560208601611930565b6128708161195a565b840191505092915050565b60006080820190506128906000830187611a5b565b61289d6020830186611a5b565b6128aa6040830185611b71565b81810360608301526128bc8184612842565b905095945050505050565b6000815190506128d681611885565b92915050565b6000602082840312156128f2576128f161184f565b5b6000612900848285016128c7565b91505092915050565b6000612914826119c6565b91507fffffffffffffffffffffffffffffffffffffffffffffffffffffffffffffffff820361294657612945612381565b5b600182019050919050565b7f4e487b7100000000000000000000000000000000000000000000000000000000600052601260045260246000fd5b600061298b826119c6565b9150612996836119c6565b9250826129a6576129a5612951565b5b828204905092915050565b60006129bc826119c6565b91506129c7836119c6565b9250826129d7576129d6612951565b5b828206905092915050565b7f4e487b7100000000000000000000000000000000000000000000000000000000600052603260045260246000fd5b7f4552433732313a206d696e7420746f20746865207a65726f2061646472657373600082015250565b6000612a4760208361191f565b9150612a5282612a11565b602082019050919050565b60006020820190508181036000830152612a7681612a3a565b9050919050565b7f4552433732313a20746f6b656e20616c7265616479206d696e74656400000000600082015250565b6000612ab3601c8361191f565b9150612abe82612a7d565b602082019050919050565b60006020820190508181036000830152612ae281612aa6565b905091905056fea26469706673582212200001160dc9054d16b8e90ecf1816f857b275e129737999471e3a12e04ed4c71164736f6c63430008110033",
  "immutableReferences": {},
  "source": "// SPDX-License-Identifier: MIT\npragma solidity ^0.8.0;\n\nimport \"./@openzeppelin/contracts/token/ERC721/ERC721.sol\";\nimport \"./@openzeppelin/contracts/token/ERC721/extensions/ERC721URIStorage.sol\";\nimport \"./@openzeppelin/contracts/utils/Counters.sol\";\n\ncontract TruffleNFT is ERC721URIStorage {\n  using Counters for Counters.Counter;\n  Counters.Counter private _tokenIds;\n  address marketplaceContract;\n  event NFTMinted(uint256);\n\n  //  {\"id\":1,\"description\":\"The world's most adorable and sensitive bear\",\"tokenURI\":\"https://ipfs.io/ipfs/QmSHyHr3kHKza3YRMfNz5HFatotSvLSa17YHJPzXJow1gU\",\"name\":\"Beanie Bear\", \"isForSale\": true },\n\n  constructor(address _marketplaceContract) ERC721(\"SandyToken\", \"SandyTKN\") {\n    marketplaceContract = _marketplaceContract;\n  }\n\n  function mint(string memory _tokenURI) public {\n    uint256 newTokenId = _tokenIds.current();\n    _tokenIds.increment();\n    _safeMint(msg.sender, newTokenId);\n    _setTokenURI(newTokenId, _tokenURI);\n    setApprovalForAll(marketplaceContract, true);\n    emit NFTMinted(newTokenId);\n  }\n\n  function getCurrentToken() public view returns (uint256) {\n       return _tokenIds.current();\n   }\n}\n",
  "sourcePath": "/Users/sandyinstructor/Documents/Online_Business/Udemy/blockchain/udemy-nft-mkt/MARKETPLACE/contracts/NFT.sol",
  "compiler": {
    "name": "solc",
    "version": "0.8.17+commit.8df45f5f.Emscripten.clang"
  },
  "schemaVersion": "3.4.7",
  "updatedAt": "2022-10-08T00:31:00.805Z",
  "devdoc": {
    "kind": "dev",
    "methods": {
      "approve(address,uint256)": {
        "details": "See {IERC721-approve}."
      },
      "balanceOf(address)": {
        "details": "See {IERC721-balanceOf}."
      },
      "getApproved(uint256)": {
        "details": "See {IERC721-getApproved}."
      },
      "isApprovedForAll(address,address)": {
        "details": "See {IERC721-isApprovedForAll}."
      },
      "name()": {
        "details": "See {IERC721Metadata-name}."
      },
      "ownerOf(uint256)": {
        "details": "See {IERC721-ownerOf}."
      },
      "safeTransferFrom(address,address,uint256)": {
        "details": "See {IERC721-safeTransferFrom}."
      },
      "safeTransferFrom(address,address,uint256,bytes)": {
        "details": "See {IERC721-safeTransferFrom}."
      },
      "setApprovalForAll(address,bool)": {
        "details": "See {IERC721-setApprovalForAll}."
      },
      "supportsInterface(bytes4)": {
        "details": "See {IERC165-supportsInterface}."
      },
      "symbol()": {
        "details": "See {IERC721Metadata-symbol}."
      },
      "tokenURI(uint256)": {
        "details": "See {IERC721Metadata-tokenURI}."
      },
      "transferFrom(address,address,uint256)": {
        "details": "See {IERC721-transferFrom}."
      }
    },
    "version": 1
  },
  "userdoc": {
    "kind": "user",
    "methods": {},
    "version": 1
  }
}