{
  "contractName": "Marketplace",
  "abi": [
    {
      "inputs": [],
      "stateMutability": "nonpayable",
      "type": "constructor"
    },
    {
      "anonymous": false,
      "inputs": [
        {
          "indexed": false,
          "internalType": "address",
          "name": "nftContract",
          "type": "address"
        },
        {
          "indexed": false,
          "internalType": "uint256",
          "name": "tokenId",
          "type": "uint256"
        },
        {
          "indexed": false,
          "internalType": "address",
          "name": "seller",
          "type": "address"
        },
        {
          "indexed": false,
          "internalType": "address",
          "name": "owner",
          "type": "address"
        },
        {
          "indexed": false,
          "internalType": "uint256",
          "name": "price",
          "type": "uint256"
        }
      ],
      "name": "NFTListed",
      "type": "event"
    },
    {
      "anonymous": false,
      "inputs": [
        {
          "indexed": false,
          "internalType": "address",
          "name": "nftContract",
          "type": "address"
        },
        {
          "indexed": false,
          "internalType": "uint256",
          "name": "tokenId",
          "type": "uint256"
        },
        {
          "indexed": false,
          "internalType": "address",
          "name": "seller",
          "type": "address"
        },
        {
          "indexed": false,
          "internalType": "address",
          "name": "owner",
          "type": "address"
        },
        {
          "indexed": false,
          "internalType": "uint256",
          "name": "price",
          "type": "uint256"
        }
      ],
      "name": "NFTSold",
      "type": "event"
    },
    {
      "inputs": [],
      "name": "LISTING_FEE",
      "outputs": [
        {
          "internalType": "uint256",
          "name": "",
          "type": "uint256"
        }
      ],
      "stateMutability": "view",
      "type": "function",
      "constant": true
    },
    {
      "inputs": [
        {
          "internalType": "address",
          "name": "_nftContract",
          "type": "address"
        },
        {
          "internalType": "uint256",
          "name": "_tokenId",
          "type": "uint256"
        },
        {
          "internalType": "string",
          "name": "_name",
          "type": "string"
        },
        {
          "internalType": "string",
          "name": "_tokenURI",
          "type": "string"
        }
      ],
      "name": "listNFT",
      "outputs": [],
      "stateMutability": "payable",
      "type": "function",
      "payable": true
    },
    {
      "inputs": [
        {
          "internalType": "address",
          "name": "_nftContract",
          "type": "address"
        },
        {
          "internalType": "uint256",
          "name": "_tokenId",
          "type": "uint256"
        }
      ],
      "name": "buyNFT",
      "outputs": [],
      "stateMutability": "payable",
      "type": "function",
      "payable": true
    },
    {
      "inputs": [
        {
          "internalType": "address",
          "name": "_nftContract",
          "type": "address"
        },
        {
          "internalType": "uint256",
          "name": "_tokenId",
          "type": "uint256"
        }
      ],
      "name": "resellNFT",
      "outputs": [],
      "stateMutability": "payable",
      "type": "function",
      "payable": true
    }
  ],
  "bytecode": "0x6080604052655af3107a400060035534801561001a57600080fd5b50600160008190555033600460006101000a81548173ffffffffffffffffffffffffffffffffffffffff021916908373ffffffffffffffffffffffffffffffffffffffff1602179055506113f9806100736000396000f3fe60806040526004361061003f5760003560e01c80632b86ae38146100445780639e1001b01461006f578063a82ba76f1461008b578063dbcc7575146100a7575b600080fd5b34801561005057600080fd5b506100596100c3565b6040516100669190610bec565b60405180910390f35b61008960048036038101906100849190610ca5565b6100c9565b005b6100a560048036038101906100a09190610ca5565b610316565b005b6100c160048036038101906100bc9190610e2b565b610748565b005b60035481565b60026000540361010e576040517f08c379a000000000000000000000000000000000000000000000000000000000815260040161010590610f27565b60405180910390fd5b600260008190555060008273ffffffffffffffffffffffffffffffffffffffff16636352211e836040518263ffffffff1660e01b81526004016101519190610bec565b602060405180830381865afa15801561016e573d6000803e3d6000fd5b505050506040513d601f19601f820116820180604052508101906101929190610f5c565b905060006005600084815260200190815260200160002090508373ffffffffffffffffffffffffffffffffffffffff166323b872dd8330866040518463ffffffff1660e01b81526004016101e893929190610f98565b600060405180830381600087803b15801561020257600080fd5b505af1158015610216573d6000803e3d6000fd5b50505050338160020160006101000a81548173ffffffffffffffffffffffffffffffffffffffff021916908373ffffffffffffffffffffffffffffffffffffffff160217905550308160030160006101000a81548173ffffffffffffffffffffffffffffffffffffffff021916908373ffffffffffffffffffffffffffffffffffffffff16021790555060018160070160006101000a81548160ff0219169083151502179055506102c76001610abe565b7fa0c6c0d02d86fdacecbaa5fdf5894bab204e31a778250474108540733a9b8d1984843330600354604051610300959493929190610fcf565b60405180910390a1505060016000819055505050565b60026000540361035b576040517f08c379a000000000000000000000000000000000000000000000000000000000815260040161035290610f27565b60405180910390fd5b600260008190555060008273ffffffffffffffffffffffffffffffffffffffff16636352211e836040518263ffffffff1660e01b815260040161039e9190610bec565b602060405180830381865afa1580156103bb573d6000803e3d6000fd5b505050506040513d601f19601f820116820180604052508101906103df9190610f5c565b90506000600560008481526020019081526020016000209050806006015434101561043f576040517f08c379a000000000000000000000000000000000000000000000000000000000815260040161043690611094565b60405180910390fd5b60003390508160020160009054906101000a900473ffffffffffffffffffffffffffffffffffffffff1673ffffffffffffffffffffffffffffffffffffffff166108fc349081150290604051600060405180830381858888f193505050501580156104ae573d6000803e3d6000fd5b508473ffffffffffffffffffffffffffffffffffffffff1663a22cb4658260016040518363ffffffff1660e01b81526004016104eb9291906110cf565b600060405180830381600087803b15801561050557600080fd5b505af1158015610519573d6000803e3d6000fd5b505050508473ffffffffffffffffffffffffffffffffffffffff1663095ea7b382866040518363ffffffff1660e01b81526004016105589291906110f8565b600060405180830381600087803b15801561057257600080fd5b505af1158015610586573d6000803e3d6000fd5b505050508473ffffffffffffffffffffffffffffffffffffffff166323b872dd848385600101546040518463ffffffff1660e01b81526004016105cb93929190610f98565b600060405180830381600087803b1580156105e557600080fd5b505af11580156105f9573d6000803e3d6000fd5b50505050600460009054906101000a900473ffffffffffffffffffffffffffffffffffffffff1673ffffffffffffffffffffffffffffffffffffffff166108fc6003549081150290604051600060405180830381858888f19350505050158015610667573d6000803e3d6000fd5b50808260030160006101000a81548173ffffffffffffffffffffffffffffffffffffffff021916908373ffffffffffffffffffffffffffffffffffffffff16021790555060008260070160006101000a81548160ff0219169083151502179055506106d26001610b1a565b7f16f1dbd97e6bf646d429ed186cce832f1f7fd9907814293b83181e9970ab7bd28583600101548460020160009054906101000a900473ffffffffffffffffffffffffffffffffffffffff168434604051610731959493929190611180565b60405180910390a150505060016000819055505050565b60026000540361078d576040517f08c379a000000000000000000000000000000000000000000000000000000000815260040161078490610f27565b60405180910390fd5b6002600081905550600034116107d8576040517f08c379a00000000000000000000000000000000000000000000000000000000081526004016107cf90611245565b60405180910390fd5b600354341461081c576040517f08c379a0000000000000000000000000000000000000000000000000000000008152600401610813906112d7565b60405180910390fd5b8373ffffffffffffffffffffffffffffffffffffffff166323b872dd3330866040518463ffffffff1660e01b815260040161085993929190610f98565b600060405180830381600087803b15801561087357600080fd5b505af1158015610887573d6000803e3d6000fd5b505050506108956002610b1a565b6040518061010001604052808573ffffffffffffffffffffffffffffffffffffffff1681526020018481526020013373ffffffffffffffffffffffffffffffffffffffff1681526020013073ffffffffffffffffffffffffffffffffffffffff1681526020018281526020018381526020016003548152602001600115158152506005600085815260200190815260200160002060008201518160000160006101000a81548173ffffffffffffffffffffffffffffffffffffffff021916908373ffffffffffffffffffffffffffffffffffffffff1602179055506020820151816001015560408201518160020160006101000a81548173ffffffffffffffffffffffffffffffffffffffff021916908373ffffffffffffffffffffffffffffffffffffffff16021790555060608201518160030160006101000a81548173ffffffffffffffffffffffffffffffffffffffff021916908373ffffffffffffffffffffffffffffffffffffffff1602179055506080820151816004019080519060200190610a24929190610b30565b5060a0820151816005019080519060200190610a41929190610b30565b5060c0820151816006015560e08201518160070160006101000a81548160ff0219169083151502179055509050507fa0c6c0d02d86fdacecbaa5fdf5894bab204e31a778250474108540733a9b8d1984843330600354604051610aa8959493929190610fcf565b60405180910390a1600160008190555050505050565b60008160000154905060008111610b0a576040517f08c379a0000000000000000000000000000000000000000000000000000000008152600401610b0190611343565b60405180910390fd5b6001810382600001819055505050565b6001816000016000828254019250508190555050565b828054610b3c90611392565b90600052602060002090601f016020900481019282610b5e5760008555610ba5565b82601f10610b7757805160ff1916838001178555610ba5565b82800160010185558215610ba5579182015b82811115610ba4578251825591602001919060010190610b89565b5b509050610bb29190610bb6565b5090565b5b80821115610bcf576000816000905550600101610bb7565b5090565b6000819050919050565b610be681610bd3565b82525050565b6000602082019050610c016000830184610bdd565b92915050565b6000604051905090565b600080fd5b600080fd5b600073ffffffffffffffffffffffffffffffffffffffff82169050919050565b6000610c4682610c1b565b9050919050565b610c5681610c3b565b8114610c6157600080fd5b50565b600081359050610c7381610c4d565b92915050565b610c8281610bd3565b8114610c8d57600080fd5b50565b600081359050610c9f81610c79565b92915050565b60008060408385031215610cbc57610cbb610c11565b5b6000610cca85828601610c64565b9250506020610cdb85828601610c90565b9150509250929050565b600080fd5b600080fd5b6000601f19601f8301169050919050565b7f4e487b7100000000000000000000000000000000000000000000000000000000600052604160045260246000fd5b610d3882610cef565b810181811067ffffffffffffffff82111715610d5757610d56610d00565b5b80604052505050565b6000610d6a610c07565b9050610d768282610d2f565b919050565b600067ffffffffffffffff821115610d9657610d95610d00565b5b610d9f82610cef565b9050602081019050919050565b82818337600083830152505050565b6000610dce610dc984610d7b565b610d60565b905082815260208101848484011115610dea57610de9610cea565b5b610df5848285610dac565b509392505050565b600082601f830112610e1257610e11610ce5565b5b8135610e22848260208601610dbb565b91505092915050565b60008060008060808587031215610e4557610e44610c11565b5b6000610e5387828801610c64565b9450506020610e6487828801610c90565b935050604085013567ffffffffffffffff811115610e8557610e84610c16565b5b610e9187828801610dfd565b925050606085013567ffffffffffffffff811115610eb257610eb1610c16565b5b610ebe87828801610dfd565b91505092959194509250565b600082825260208201905092915050565b7f5265656e7472616e637947756172643a207265656e7472616e742063616c6c00600082015250565b6000610f11601f83610eca565b9150610f1c82610edb565b602082019050919050565b60006020820190508181036000830152610f4081610f04565b9050919050565b600081519050610f5681610c4d565b92915050565b600060208284031215610f7257610f71610c11565b5b6000610f8084828501610f47565b91505092915050565b610f9281610c3b565b82525050565b6000606082019050610fad6000830186610f89565b610fba6020830185610f89565b610fc76040830184610bdd565b949350505050565b600060a082019050610fe46000830188610f89565b610ff16020830187610bdd565b610ffe6040830186610f89565b61100b6060830185610f89565b6110186080830184610bdd565b9695505050505050565b7f4e6f7420656e6f75676820657468657220746f20636f7665722074686520746f60008201527f6b656e2070726963650000000000000000000000000000000000000000000000602082015250565b600061107e602983610eca565b915061108982611022565b604082019050919050565b600060208201905081810360008301526110ad81611071565b9050919050565b60008115159050919050565b6110c9816110b4565b82525050565b60006040820190506110e46000830185610f89565b6110f160208301846110c0565b9392505050565b600060408201905061110d6000830185610f89565b61111a6020830184610bdd565b9392505050565b6000819050919050565b600061114661114161113c84610c1b565b611121565b610c1b565b9050919050565b60006111588261112b565b9050919050565b600061116a8261114d565b9050919050565b61117a8161115f565b82525050565b600060a0820190506111956000830188610f89565b6111a26020830187610bdd565b6111af6040830186611171565b6111bc6060830185610f89565b6111c96080830184610bdd565b9695505050505050565b7f5072696365206d757374206265206174206c6561737420302e3030303120657460008201527f6865720000000000000000000000000000000000000000000000000000000000602082015250565b600061122f602383610eca565b915061123a826111d3565b604082019050919050565b6000602082019050818103600083015261125e81611222565b9050919050565b7f4e6f7420656e6f75676820657468657220666f7220746865206c697374696e6760008201527f2066656500000000000000000000000000000000000000000000000000000000602082015250565b60006112c1602483610eca565b91506112cc82611265565b604082019050919050565b600060208201905081810360008301526112f0816112b4565b9050919050565b7f436f756e7465723a2064656372656d656e74206f766572666c6f770000000000600082015250565b600061132d601b83610eca565b9150611338826112f7565b602082019050919050565b6000602082019050818103600083015261135c81611320565b9050919050565b7f4e487b7100000000000000000000000000000000000000000000000000000000600052602260045260246000fd5b600060028204905060018216806113aa57607f821691505b6020821081036113bd576113bc611363565b5b5091905056fea264697066735822122031878d364776f6c0aace013b2737db1531b7380e33e78ce826b280dd15cab1cb64736f6c634300080d0033",
  "immutableReferences": {},
  "source": "// SPDX-License-Identifier: MIT\npragma solidity ^0.8.0;\n\nimport \"./@openzeppelin/contracts/utils/Counters.sol\";\nimport \"./@openzeppelin/contracts/token/ERC721/ERC721.sol\";\nimport \"./@openzeppelin/contracts/security/ReentrancyGuard.sol\";\n\n//  \"https://ipfs.io/ipfs/QmSHyHr3kHKza3YRMfNz5HFatotSvLSa17YHJPzXJow1gU\",\n//  \"https://ipfs.io/ipfs/QmVqKAMsQRbNcVffMUwyzVHhcx37sx46qnFX6nnYqu1rb9\",\n//  \"https://ipfs.io/ipfs/QmcEd1R1Qq7M6G7NnHxDXYdiYtJAn9A2FGjg94Ku75HgUD\", \n//  \"https://ipfs.io/ipfs/QmUveY3PgfLD9TahrAEH2WieCG1PfU9Ybdq9WbZe8wXwvQ\",\n//  \"https://ipfs.io/ipfs/QmNeo34iQGsPLagnw1E6LjzfgmqVNLYftCymHKv11q9QsS\",\n//  \"https://ipfs.io/ipfs/QmXou1mty7AqhKzxrxC5C7Xqx8yVjVi8ZEqjacUpQQ89hD\"\n\n\ncontract Marketplace is ReentrancyGuard {\n  using Counters for Counters.Counter;\n  Counters.Counter private _nftsSold;\n  Counters.Counter private _nftCount;\n  uint256 public LISTING_FEE = 0.0001 ether;\n  address payable private _marketOwner;\n  mapping(uint256 => Token) private _idToToken;\n\n  struct Token {\n       address nftContract;\n       uint256 tokenId;\n       address payable seller;\n       address payable owner;\n       string tokenURI;\n       string name;\n       uint256 price;\n       bool isListed;\n   }\n\n  event NFTListed(\n    address nftContract,\n    uint256 tokenId,\n    address seller,\n    address owner,\n    uint256 price\n  );\n  event NFTSold(\n    address nftContract,\n    uint256 tokenId,\n    address seller,\n    address owner,\n    uint256 price\n  );\n\n  constructor() {\n    _marketOwner = payable(msg.sender);\n  }\n\n\n  // List the NFT on the marketplace\n  function listNFT(address _nftContract, uint256 _tokenId, string memory _name, string memory _tokenURI) public payable nonReentrant {\n      require(msg.value > 0, \"Price must be at least 0.0001 ether\");\n      require(msg.value == LISTING_FEE, \"Not enough ether for the listing fee\");\n\n      IERC721(_nftContract).transferFrom(msg.sender, address(this), _tokenId);\n\n      _nftCount.increment();\n\n      _idToToken[_tokenId] = Token(\n          _nftContract, \n          _tokenId, \n          payable(msg.sender),\n          payable(address(this)), \n          _tokenURI,\n          _name, \n          LISTING_FEE,\n          true\n      );\n\n      emit NFTListed(_nftContract, _tokenId, msg.sender, address(this), LISTING_FEE);\n\n  }\n\n  // Buy an NFT\n  function buyNFT(address _nftContract, uint256 _tokenId) public payable nonReentrant  {\n     address owner = IERC721(_nftContract).ownerOf(_tokenId);\n     Token storage nft = _idToToken[_tokenId];\n     require(msg.value >= nft.price, \"Not enough ether to cover the token price\");\n\n     address buyer = payable(msg.sender);\n     payable(nft.seller).transfer(msg.value);\n     IERC721(_nftContract).setApprovalForAll(buyer,true);\n     IERC721(_nftContract).approve(buyer, _tokenId);\n     IERC721(_nftContract).transferFrom(owner, buyer, nft.tokenId);\n\n     _marketOwner.transfer(LISTING_FEE);\n     nft.owner = payable(buyer);\n     nft.isListed = false;\n\n    _nftsSold.increment();\n    emit NFTSold(_nftContract, nft.tokenId, nft.seller, buyer, msg.value);\n  }\n\n  // Resell an NFT purchased from the marketplace\n  function resellNFT(address _nftContract, uint256 _tokenId) public payable nonReentrant {  \n    address owner = IERC721(_nftContract).ownerOf(_tokenId);\n    Token storage nft = _idToToken[_tokenId];\n    \n    IERC721(_nftContract).transferFrom(owner, address(this), _tokenId);\n    nft.seller = payable(msg.sender);\n    nft.owner = payable(address(this));\n    nft.isListed = true;\n    _nftsSold.decrement();\n    emit NFTListed(_nftContract, _tokenId, msg.sender, address(this), LISTING_FEE);\n  }\n\n}\n",
  "sourcePath": "/Users/sandyinstructor/Desktop/mkt-project/contracts/Marketplace.sol",
  "compiler": {
    "name": "solc",
    "version": "0.8.13+commit.abaa5c0e.Emscripten.clang"
  },
  "schemaVersion": "3.4.7",
  "updatedAt": "2022-11-04T14:39:33.346Z",
  "networkType": "ethereum",
  "devdoc": {
    "kind": "dev",
    "methods": {},
    "version": 1
  },
  "userdoc": {
    "kind": "user",
    "methods": {},
    "version": 1
  }
}