{
  "contractName": "NFT",
  "abi": [
    {
      "inputs": [
        {
          "internalType": "address",
          "name": "_marketplace",
          "type": "address"
        }
      ],
      "stateMutability": "nonpayable",
      "type": "constructor"
    },
    {
      "anonymous": false,
      "inputs": [
        {
          "indexed": true,
          "internalType": "address",
          "name": "owner",
          "type": "address"
        },
        {
          "indexed": true,
          "internalType": "address",
          "name": "approved",
          "type": "address"
        },
        {
          "indexed": true,
          "internalType": "uint256",
          "name": "tokenId",
          "type": "uint256"
        }
      ],
      "name": "Approval",
      "type": "event"
    },
    {
      "anonymous": false,
      "inputs": [
        {
          "indexed": true,
          "internalType": "address",
          "name": "owner",
          "type": "address"
        },
        {
          "indexed": true,
          "internalType": "address",
          "name": "operator",
          "type": "address"
        },
        {
          "indexed": false,
          "internalType": "bool",
          "name": "approved",
          "type": "bool"
        }
      ],
      "name": "ApprovalForAll",
      "type": "event"
    },
    {
      "anonymous": false,
      "inputs": [
        {
          "indexed": false,
          "internalType": "uint256",
          "name": "",
          "type": "uint256"
        }
      ],
      "name": "NFTMinted",
      "type": "event"
    },
    {
      "anonymous": false,
      "inputs": [
        {
          "indexed": true,
          "internalType": "address",
          "name": "from",
          "type": "address"
        },
        {
          "indexed": true,
          "internalType": "address",
          "name": "to",
          "type": "address"
        },
        {
          "indexed": true,
          "internalType": "uint256",
          "name": "tokenId",
          "type": "uint256"
        }
      ],
      "name": "Transfer",
      "type": "event"
    },
    {
      "inputs": [
        {
          "internalType": "address",
          "name": "to",
          "type": "address"
        },
        {
          "internalType": "uint256",
          "name": "tokenId",
          "type": "uint256"
        }
      ],
      "name": "approve",
      "outputs": [],
      "stateMutability": "nonpayable",
      "type": "function"
    },
    {
      "inputs": [
        {
          "internalType": "address",
          "name": "owner",
          "type": "address"
        }
      ],
      "name": "balanceOf",
      "outputs": [
        {
          "internalType": "uint256",
          "name": "",
          "type": "uint256"
        }
      ],
      "stateMutability": "view",
      "type": "function"
    },
    {
      "inputs": [
        {
          "internalType": "uint256",
          "name": "tokenId",
          "type": "uint256"
        }
      ],
      "name": "getApproved",
      "outputs": [
        {
          "internalType": "address",
          "name": "",
          "type": "address"
        }
      ],
      "stateMutability": "view",
      "type": "function"
    },
    {
      "inputs": [
        {
          "internalType": "address",
          "name": "owner",
          "type": "address"
        },
        {
          "internalType": "address",
          "name": "operator",
          "type": "address"
        }
      ],
      "name": "isApprovedForAll",
      "outputs": [
        {
          "internalType": "bool",
          "name": "",
          "type": "bool"
        }
      ],
      "stateMutability": "view",
      "type": "function"
    },
    {
      "inputs": [],
      "name": "name",
      "outputs": [
        {
          "internalType": "string",
          "name": "",
          "type": "string"
        }
      ],
      "stateMutability": "view",
      "type": "function"
    },
    {
      "inputs": [
        {
          "internalType": "uint256",
          "name": "tokenId",
          "type": "uint256"
        }
      ],
      "name": "ownerOf",
      "outputs": [
        {
          "internalType": "address",
          "name": "",
          "type": "address"
        }
      ],
      "stateMutability": "view",
      "type": "function"
    },
    {
      "inputs": [
        {
          "internalType": "address",
          "name": "from",
          "type": "address"
        },
        {
          "internalType": "address",
          "name": "to",
          "type": "address"
        },
        {
          "internalType": "uint256",
          "name": "tokenId",
          "type": "uint256"
        }
      ],
      "name": "safeTransferFrom",
      "outputs": [],
      "stateMutability": "nonpayable",
      "type": "function"
    },
    {
      "inputs": [
        {
          "internalType": "address",
          "name": "from",
          "type": "address"
        },
        {
          "internalType": "address",
          "name": "to",
          "type": "address"
        },
        {
          "internalType": "uint256",
          "name": "tokenId",
          "type": "uint256"
        },
        {
          "internalType": "bytes",
          "name": "data",
          "type": "bytes"
        }
      ],
      "name": "safeTransferFrom",
      "outputs": [],
      "stateMutability": "nonpayable",
      "type": "function"
    },
    {
      "inputs": [
        {
          "internalType": "address",
          "name": "operator",
          "type": "address"
        },
        {
          "internalType": "bool",
          "name": "approved",
          "type": "bool"
        }
      ],
      "name": "setApprovalForAll",
      "outputs": [],
      "stateMutability": "nonpayable",
      "type": "function"
    },
    {
      "inputs": [
        {
          "internalType": "bytes4",
          "name": "interfaceId",
          "type": "bytes4"
        }
      ],
      "name": "supportsInterface",
      "outputs": [
        {
          "internalType": "bool",
          "name": "",
          "type": "bool"
        }
      ],
      "stateMutability": "view",
      "type": "function"
    },
    {
      "inputs": [],
      "name": "symbol",
      "outputs": [
        {
          "internalType": "string",
          "name": "",
          "type": "string"
        }
      ],
      "stateMutability": "view",
      "type": "function"
    },
    {
      "inputs": [
        {
          "internalType": "uint256",
          "name": "tokenId",
          "type": "uint256"
        }
      ],
      "name": "tokenURI",
      "outputs": [
        {
          "internalType": "string",
          "name": "",
          "type": "string"
        }
      ],
      "stateMutability": "view",
      "type": "function"
    },
    {
      "inputs": [
        {
          "internalType": "address",
          "name": "from",
          "type": "address"
        },
        {
          "internalType": "address",
          "name": "to",
          "type": "address"
        },
        {
          "internalType": "uint256",
          "name": "tokenId",
          "type": "uint256"
        }
      ],
      "name": "transferFrom",
      "outputs": [],
      "stateMutability": "nonpayable",
      "type": "function"
    },
    {
      "inputs": [
        {
          "internalType": "string",
          "name": "_tokenURI",
          "type": "string"
        }
      ],
      "name": "mint",
      "outputs": [],
      "stateMutability": "nonpayable",
      "type": "function"
    },
    {
      "inputs": [],
      "name": "getCurrentToken",
      "outputs": [
        {
          "internalType": "uint256",
          "name": "",
          "type": "uint256"
        }
      ],
      "stateMutability": "view",
      "type": "function"
    }
  ],
  "bytecode": "0x60806040523480156200001157600080fd5b5060405162002ba538038062002ba5833981810160405281019062000037919062000239565b6040518060400160405280600781526020017f4d79546f6b656e000000000000000000000000000000000000000000000000008152506040518060400160405280600481526020017f4d544b4e000000000000000000000000000000000000000000000000000000008152508160009080519060200190620000bb9291906200011f565b508060019080519060200190620000d49291906200011f565b50505080600860006101000a81548173ffffffffffffffffffffffffffffffffffffffff021916908373ffffffffffffffffffffffffffffffffffffffff16021790555050620002cf565b8280546200012d906200029a565b90600052602060002090601f0160209004810192826200015157600085556200019d565b82601f106200016c57805160ff19168380011785556200019d565b828001600101855582156200019d579182015b828111156200019c5782518255916020019190600101906200017f565b5b509050620001ac9190620001b0565b5090565b5b80821115620001cb576000816000905550600101620001b1565b5090565b600080fd5b600073ffffffffffffffffffffffffffffffffffffffff82169050919050565b60006200020182620001d4565b9050919050565b6200021381620001f4565b81146200021f57600080fd5b50565b600081519050620002338162000208565b92915050565b600060208284031215620002525762000251620001cf565b5b6000620002628482850162000222565b91505092915050565b7f4e487b7100000000000000000000000000000000000000000000000000000000600052602260045260246000fd5b60006002820490506001821680620002b357607f821691505b602082108103620002c957620002c86200026b565b5b50919050565b6128c680620002df6000396000f3fe608060405234801561001057600080fd5b50600436106100f55760003560e01c806370a0823111610097578063c87b56dd11610066578063c87b56dd14610282578063d85d3d27146102b2578063e985e9c5146102ce578063ef2d1746146102fe576100f5565b806370a08231146101fc57806395d89b411461022c578063a22cb4651461024a578063b88d4fde14610266576100f5565b8063095ea7b3116100d3578063095ea7b31461017857806323b872dd1461019457806342842e0e146101b05780636352211e146101cc576100f5565b806301ffc9a7146100fa57806306fdde031461012a578063081812fc14610148575b600080fd5b610114600480360381019061010f91906118ab565b61031c565b60405161012191906118f3565b60405180910390f35b6101326103fe565b60405161013f91906119a7565b60405180910390f35b610162600480360381019061015d91906119ff565b610490565b60405161016f9190611a6d565b60405180910390f35b610192600480360381019061018d9190611ab4565b6104d6565b005b6101ae60048036038101906101a99190611af4565b6105ed565b005b6101ca60048036038101906101c59190611af4565b61064d565b005b6101e660048036038101906101e191906119ff565b61066d565b6040516101f39190611a6d565b60405180910390f35b61021660048036038101906102119190611b47565b61071e565b6040516102239190611b83565b60405180910390f35b6102346107d5565b60405161024191906119a7565b60405180910390f35b610264600480360381019061025f9190611bca565b610867565b005b610280600480360381019061027b9190611d3f565b61087d565b005b61029c600480360381019061029791906119ff565b6108df565b6040516102a991906119a7565b60405180910390f35b6102cc60048036038101906102c79190611e63565b6109f1565b005b6102e860048036038101906102e39190611eac565b610a4e565b6040516102f591906118f3565b60405180910390f35b610306610ae2565b6040516103139190611b83565b60405180910390f35b60007f80ac58cd000000000000000000000000000000000000000000000000000000007bffffffffffffffffffffffffffffffffffffffffffffffffffffffff1916827bffffffffffffffffffffffffffffffffffffffffffffffffffffffff191614806103e757507f5b5e139f000000000000000000000000000000000000000000000000000000007bffffffffffffffffffffffffffffffffffffffffffffffffffffffff1916827bffffffffffffffffffffffffffffffffffffffffffffffffffffffff1916145b806103f757506103f682610af3565b5b9050919050565b60606000805461040d90611f1b565b80601f016020809104026020016040519081016040528092919081815260200182805461043990611f1b565b80156104865780601f1061045b57610100808354040283529160200191610486565b820191906000526020600020905b81548152906001019060200180831161046957829003601f168201915b5050505050905090565b600061049b82610b5d565b6004600083815260200190815260200160002060009054906101000a900473ffffffffffffffffffffffffffffffffffffffff169050919050565b60006104e18261066d565b90508073ffffffffffffffffffffffffffffffffffffffff168373ffffffffffffffffffffffffffffffffffffffff1603610551576040517f08c379a000000000000000000000000000000000000000000000000000000000815260040161054890611fbe565b60405180910390fd5b8073ffffffffffffffffffffffffffffffffffffffff16610570610ba8565b73ffffffffffffffffffffffffffffffffffffffff16148061059f575061059e81610599610ba8565b610a4e565b5b6105de576040517f08c379a00000000000000000000000000000000000000000000000000000000081526004016105d590612050565b60405180910390fd5b6105e88383610bb0565b505050565b6105fe6105f8610ba8565b82610c69565b61063d576040517f08c379a0000000000000000000000000000000000000000000000000000000008152600401610634906120e2565b60405180910390fd5b610648838383610cfe565b505050565b6106688383836040518060200160405280600081525061087d565b505050565b6000806002600084815260200190815260200160002060009054906101000a900473ffffffffffffffffffffffffffffffffffffffff169050600073ffffffffffffffffffffffffffffffffffffffff168173ffffffffffffffffffffffffffffffffffffffff1603610715576040517f08c379a000000000000000000000000000000000000000000000000000000000815260040161070c9061214e565b60405180910390fd5b80915050919050565b60008073ffffffffffffffffffffffffffffffffffffffff168273ffffffffffffffffffffffffffffffffffffffff160361078e576040517f08c379a0000000000000000000000000000000000000000000000000000000008152600401610785906121e0565b60405180910390fd5b600360008373ffffffffffffffffffffffffffffffffffffffff1673ffffffffffffffffffffffffffffffffffffffff168152602001908152602001600020549050919050565b6060600180546107e490611f1b565b80601f016020809104026020016040519081016040528092919081815260200182805461081090611f1b565b801561085d5780601f106108325761010080835404028352916020019161085d565b820191906000526020600020905b81548152906001019060200180831161084057829003601f168201915b5050505050905090565b610879610872610ba8565b8383610f64565b5050565b61088e610888610ba8565b83610c69565b6108cd576040517f08c379a00000000000000000000000000000000000000000000000000000000081526004016108c4906120e2565b60405180910390fd5b6108d9848484846110d0565b50505050565b60606108ea82610b5d565b600060066000848152602001908152602001600020805461090a90611f1b565b80601f016020809104026020016040519081016040528092919081815260200182805461093690611f1b565b80156109835780601f1061095857610100808354040283529160200191610983565b820191906000526020600020905b81548152906001019060200180831161096657829003601f168201915b50505050509050600061099461112c565b905060008151036109a95781925050506109ec565b6000825111156109de5780826040516020016109c692919061223c565b604051602081830303815290604052925050506109ec565b6109e784611143565b925050505b919050565b60006109fd60076111ab565b9050610a0933826111b9565b610a138183611392565b610a40600860009054906101000a900473ffffffffffffffffffffffffffffffffffffffff166001610867565b610a4a6007611406565b5050565b6000600560008473ffffffffffffffffffffffffffffffffffffffff1673ffffffffffffffffffffffffffffffffffffffff16815260200190815260200160002060008373ffffffffffffffffffffffffffffffffffffffff1673ffffffffffffffffffffffffffffffffffffffff16815260200190815260200160002060009054906101000a900460ff16905092915050565b6000610aee60076111ab565b905090565b60007f01ffc9a7000000000000000000000000000000000000000000000000000000007bffffffffffffffffffffffffffffffffffffffffffffffffffffffff1916827bffffffffffffffffffffffffffffffffffffffffffffffffffffffff1916149050919050565b610b668161141c565b610ba5576040517f08c379a0000000000000000000000000000000000000000000000000000000008152600401610b9c9061214e565b60405180910390fd5b50565b600033905090565b816004600083815260200190815260200160002060006101000a81548173ffffffffffffffffffffffffffffffffffffffff021916908373ffffffffffffffffffffffffffffffffffffffff160217905550808273ffffffffffffffffffffffffffffffffffffffff16610c238361066d565b73ffffffffffffffffffffffffffffffffffffffff167f8c5be1e5ebec7d5bd14f71427d1e84f3dd0314c0f7b2291e5b200ac8c7c3b92560405160405180910390a45050565b600080610c758361066d565b90508073ffffffffffffffffffffffffffffffffffffffff168473ffffffffffffffffffffffffffffffffffffffff161480610cb75750610cb68185610a4e565b5b80610cf557508373ffffffffffffffffffffffffffffffffffffffff16610cdd84610490565b73ffffffffffffffffffffffffffffffffffffffff16145b91505092915050565b8273ffffffffffffffffffffffffffffffffffffffff16610d1e8261066d565b73ffffffffffffffffffffffffffffffffffffffff1614610d74576040517f08c379a0000000000000000000000000000000000000000000000000000000008152600401610d6b906122d2565b60405180910390fd5b600073ffffffffffffffffffffffffffffffffffffffff168273ffffffffffffffffffffffffffffffffffffffff1603610de3576040517f08c379a0000000000000000000000000000000000000000000000000000000008152600401610dda90612364565b60405180910390fd5b610dee838383611488565b610df9600082610bb0565b6001600360008573ffffffffffffffffffffffffffffffffffffffff1673ffffffffffffffffffffffffffffffffffffffff1681526020019081526020016000206000828254610e4991906123b3565b925050819055506001600360008473ffffffffffffffffffffffffffffffffffffffff1673ffffffffffffffffffffffffffffffffffffffff1681526020019081526020016000206000828254610ea091906123e7565b92505081905550816002600083815260200190815260200160002060006101000a81548173ffffffffffffffffffffffffffffffffffffffff021916908373ffffffffffffffffffffffffffffffffffffffff160217905550808273ffffffffffffffffffffffffffffffffffffffff168473ffffffffffffffffffffffffffffffffffffffff167fddf252ad1be2c89b69c2b068fc378daa952ba7f163c4a11628f55a4df523b3ef60405160405180910390a4610f5f83838361148d565b505050565b8173ffffffffffffffffffffffffffffffffffffffff168373ffffffffffffffffffffffffffffffffffffffff1603610fd2576040517f08c379a0000000000000000000000000000000000000000000000000000000008152600401610fc990612489565b60405180910390fd5b80600560008573ffffffffffffffffffffffffffffffffffffffff1673ffffffffffffffffffffffffffffffffffffffff16815260200190815260200160002060008473ffffffffffffffffffffffffffffffffffffffff1673ffffffffffffffffffffffffffffffffffffffff16815260200190815260200160002060006101000a81548160ff0219169083151502179055508173ffffffffffffffffffffffffffffffffffffffff168373ffffffffffffffffffffffffffffffffffffffff167f17307eab39ab6107e8899845ad3d59bd9653f200f220920489ca2b5937696c31836040516110c391906118f3565b60405180910390a3505050565b6110db848484610cfe565b6110e784848484611492565b611126576040517f08c379a000000000000000000000000000000000000000000000000000000000815260040161111d9061251b565b60405180910390fd5b50505050565b606060405180602001604052806000815250905090565b606061114e82610b5d565b600061115861112c565b9050600081511161117857604051806020016040528060008152506111a3565b8061118284611619565b60405160200161119392919061223c565b6040516020818303038152906040525b915050919050565b600081600001549050919050565b600073ffffffffffffffffffffffffffffffffffffffff168273ffffffffffffffffffffffffffffffffffffffff1603611228576040517f08c379a000000000000000000000000000000000000000000000000000000000815260040161121f90612587565b60405180910390fd5b6112318161141c565b15611271576040517f08c379a0000000000000000000000000000000000000000000000000000000008152600401611268906125f3565b60405180910390fd5b61127d60008383611488565b6001600360008473ffffffffffffffffffffffffffffffffffffffff1673ffffffffffffffffffffffffffffffffffffffff16815260200190815260200160002060008282546112cd91906123e7565b92505081905550816002600083815260200190815260200160002060006101000a81548173ffffffffffffffffffffffffffffffffffffffff021916908373ffffffffffffffffffffffffffffffffffffffff160217905550808273ffffffffffffffffffffffffffffffffffffffff16600073ffffffffffffffffffffffffffffffffffffffff167fddf252ad1be2c89b69c2b068fc378daa952ba7f163c4a11628f55a4df523b3ef60405160405180910390a461138e6000838361148d565b5050565b61139b8261141c565b6113da576040517f08c379a00000000000000000000000000000000000000000000000000000000081526004016113d190612685565b60405180910390fd5b8060066000848152602001908152602001600020908051906020019061140192919061179c565b505050565b6001816000016000828254019250508190555050565b60008073ffffffffffffffffffffffffffffffffffffffff166002600084815260200190815260200160002060009054906101000a900473ffffffffffffffffffffffffffffffffffffffff1673ffffffffffffffffffffffffffffffffffffffff1614159050919050565b505050565b505050565b60006114b38473ffffffffffffffffffffffffffffffffffffffff16611779565b1561160c578373ffffffffffffffffffffffffffffffffffffffff1663150b7a026114dc610ba8565b8786866040518563ffffffff1660e01b81526004016114fe94939291906126fa565b6020604051808303816000875af192505050801561153a57506040513d601f19601f82011682018060405250810190611537919061275b565b60015b6115bc573d806000811461156a576040519150601f19603f3d011682016040523d82523d6000602084013e61156f565b606091505b5060008151036115b4576040517f08c379a00000000000000000000000000000000000000000000000000000000081526004016115ab9061251b565b60405180910390fd5b805181602001fd5b63150b7a0260e01b7bffffffffffffffffffffffffffffffffffffffffffffffffffffffff1916817bffffffffffffffffffffffffffffffffffffffffffffffffffffffff191614915050611611565b600190505b949350505050565b606060008203611660576040518060400160405280600181526020017f30000000000000000000000000000000000000000000000000000000000000008152509050611774565b600082905060005b6000821461169257808061167b90612788565b915050600a8261168b91906127ff565b9150611668565b60008167ffffffffffffffff8111156116ae576116ad611c14565b5b6040519080825280601f01601f1916602001820160405280156116e05781602001600182028036833780820191505090505b5090505b6000851461176d576001826116f991906123b3565b9150600a856117089190612830565b603061171491906123e7565b60f81b81838151811061172a57611729612861565b5b60200101907effffffffffffffffffffffffffffffffffffffffffffffffffffffffffffff1916908160001a905350600a8561176691906127ff565b94506116e4565b8093505050505b919050565b6000808273ffffffffffffffffffffffffffffffffffffffff163b119050919050565b8280546117a890611f1b565b90600052602060002090601f0160209004810192826117ca5760008555611811565b82601f106117e357805160ff1916838001178555611811565b82800160010185558215611811579182015b828111156118105782518255916020019190600101906117f5565b5b50905061181e9190611822565b5090565b5b8082111561183b576000816000905550600101611823565b5090565b6000604051905090565b600080fd5b600080fd5b60007fffffffff0000000000000000000000000000000000000000000000000000000082169050919050565b61188881611853565b811461189357600080fd5b50565b6000813590506118a58161187f565b92915050565b6000602082840312156118c1576118c0611849565b5b60006118cf84828501611896565b91505092915050565b60008115159050919050565b6118ed816118d8565b82525050565b600060208201905061190860008301846118e4565b92915050565b600081519050919050565b600082825260208201905092915050565b60005b8381101561194857808201518184015260208101905061192d565b83811115611957576000848401525b50505050565b6000601f19601f8301169050919050565b60006119798261190e565b6119838185611919565b935061199381856020860161192a565b61199c8161195d565b840191505092915050565b600060208201905081810360008301526119c1818461196e565b905092915050565b6000819050919050565b6119dc816119c9565b81146119e757600080fd5b50565b6000813590506119f9816119d3565b92915050565b600060208284031215611a1557611a14611849565b5b6000611a23848285016119ea565b91505092915050565b600073ffffffffffffffffffffffffffffffffffffffff82169050919050565b6000611a5782611a2c565b9050919050565b611a6781611a4c565b82525050565b6000602082019050611a826000830184611a5e565b92915050565b611a9181611a4c565b8114611a9c57600080fd5b50565b600081359050611aae81611a88565b92915050565b60008060408385031215611acb57611aca611849565b5b6000611ad985828601611a9f565b9250506020611aea858286016119ea565b9150509250929050565b600080600060608486031215611b0d57611b0c611849565b5b6000611b1b86828701611a9f565b9350506020611b2c86828701611a9f565b9250506040611b3d868287016119ea565b9150509250925092565b600060208284031215611b5d57611b5c611849565b5b6000611b6b84828501611a9f565b91505092915050565b611b7d816119c9565b82525050565b6000602082019050611b986000830184611b74565b92915050565b611ba7816118d8565b8114611bb257600080fd5b50565b600081359050611bc481611b9e565b92915050565b60008060408385031215611be157611be0611849565b5b6000611bef85828601611a9f565b9250506020611c0085828601611bb5565b9150509250929050565b600080fd5b600080fd5b7f4e487b7100000000000000000000000000000000000000000000000000000000600052604160045260246000fd5b611c4c8261195d565b810181811067ffffffffffffffff82111715611c6b57611c6a611c14565b5b80604052505050565b6000611c7e61183f565b9050611c8a8282611c43565b919050565b600067ffffffffffffffff821115611caa57611ca9611c14565b5b611cb38261195d565b9050602081019050919050565b82818337600083830152505050565b6000611ce2611cdd84611c8f565b611c74565b905082815260208101848484011115611cfe57611cfd611c0f565b5b611d09848285611cc0565b509392505050565b600082601f830112611d2657611d25611c0a565b5b8135611d36848260208601611ccf565b91505092915050565b60008060008060808587031215611d5957611d58611849565b5b6000611d6787828801611a9f565b9450506020611d7887828801611a9f565b9350506040611d89878288016119ea565b925050606085013567ffffffffffffffff811115611daa57611da961184e565b5b611db687828801611d11565b91505092959194509250565b600067ffffffffffffffff821115611ddd57611ddc611c14565b5b611de68261195d565b9050602081019050919050565b6000611e06611e0184611dc2565b611c74565b905082815260208101848484011115611e2257611e21611c0f565b5b611e2d848285611cc0565b509392505050565b600082601f830112611e4a57611e49611c0a565b5b8135611e5a848260208601611df3565b91505092915050565b600060208284031215611e7957611e78611849565b5b600082013567ffffffffffffffff811115611e9757611e9661184e565b5b611ea384828501611e35565b91505092915050565b60008060408385031215611ec357611ec2611849565b5b6000611ed185828601611a9f565b9250506020611ee285828601611a9f565b9150509250929050565b7f4e487b7100000000000000000000000000000000000000000000000000000000600052602260045260246000fd5b60006002820490506001821680611f3357607f821691505b602082108103611f4657611f45611eec565b5b50919050565b7f4552433732313a20617070726f76616c20746f2063757272656e74206f776e6560008201527f7200000000000000000000000000000000000000000000000000000000000000602082015250565b6000611fa8602183611919565b9150611fb382611f4c565b604082019050919050565b60006020820190508181036000830152611fd781611f9b565b9050919050565b7f4552433732313a20617070726f76652063616c6c6572206973206e6f7420746f60008201527f6b656e206f776e6572206e6f7220617070726f76656420666f7220616c6c0000602082015250565b600061203a603e83611919565b915061204582611fde565b604082019050919050565b600060208201905081810360008301526120698161202d565b9050919050565b7f4552433732313a2063616c6c6572206973206e6f7420746f6b656e206f776e6560008201527f72206e6f7220617070726f766564000000000000000000000000000000000000602082015250565b60006120cc602e83611919565b91506120d782612070565b604082019050919050565b600060208201905081810360008301526120fb816120bf565b9050919050565b7f4552433732313a20696e76616c696420746f6b656e2049440000000000000000600082015250565b6000612138601883611919565b915061214382612102565b602082019050919050565b600060208201905081810360008301526121678161212b565b9050919050565b7f4552433732313a2061646472657373207a65726f206973206e6f74206120766160008201527f6c6964206f776e65720000000000000000000000000000000000000000000000602082015250565b60006121ca602983611919565b91506121d58261216e565b604082019050919050565b600060208201905081810360008301526121f9816121bd565b9050919050565b600081905092915050565b60006122168261190e565b6122208185612200565b935061223081856020860161192a565b80840191505092915050565b6000612248828561220b565b9150612254828461220b565b91508190509392505050565b7f4552433732313a207472616e736665722066726f6d20696e636f72726563742060008201527f6f776e6572000000000000000000000000000000000000000000000000000000602082015250565b60006122bc602583611919565b91506122c782612260565b604082019050919050565b600060208201905081810360008301526122eb816122af565b9050919050565b7f4552433732313a207472616e7366657220746f20746865207a65726f2061646460008201527f7265737300000000000000000000000000000000000000000000000000000000602082015250565b600061234e602483611919565b9150612359826122f2565b604082019050919050565b6000602082019050818103600083015261237d81612341565b9050919050565b7f4e487b7100000000000000000000000000000000000000000000000000000000600052601160045260246000fd5b60006123be826119c9565b91506123c9836119c9565b9250828210156123dc576123db612384565b5b828203905092915050565b60006123f2826119c9565b91506123fd836119c9565b9250827fffffffffffffffffffffffffffffffffffffffffffffffffffffffffffffffff0382111561243257612431612384565b5b828201905092915050565b7f4552433732313a20617070726f766520746f2063616c6c657200000000000000600082015250565b6000612473601983611919565b915061247e8261243d565b602082019050919050565b600060208201905081810360008301526124a281612466565b9050919050565b7f4552433732313a207472616e7366657220746f206e6f6e20455243373231526560008201527f63656976657220696d706c656d656e7465720000000000000000000000000000602082015250565b6000612505603283611919565b9150612510826124a9565b604082019050919050565b60006020820190508181036000830152612534816124f8565b9050919050565b7f4552433732313a206d696e7420746f20746865207a65726f2061646472657373600082015250565b6000612571602083611919565b915061257c8261253b565b602082019050919050565b600060208201905081810360008301526125a081612564565b9050919050565b7f4552433732313a20746f6b656e20616c7265616479206d696e74656400000000600082015250565b60006125dd601c83611919565b91506125e8826125a7565b602082019050919050565b6000602082019050818103600083015261260c816125d0565b9050919050565b7f45524337323155524953746f726167653a2055524920736574206f66206e6f6e60008201527f6578697374656e7420746f6b656e000000000000000000000000000000000000602082015250565b600061266f602e83611919565b915061267a82612613565b604082019050919050565b6000602082019050818103600083015261269e81612662565b9050919050565b600081519050919050565b600082825260208201905092915050565b60006126cc826126a5565b6126d681856126b0565b93506126e681856020860161192a565b6126ef8161195d565b840191505092915050565b600060808201905061270f6000830187611a5e565b61271c6020830186611a5e565b6127296040830185611b74565b818103606083015261273b81846126c1565b905095945050505050565b6000815190506127558161187f565b92915050565b60006020828403121561277157612770611849565b5b600061277f84828501612746565b91505092915050565b6000612793826119c9565b91507fffffffffffffffffffffffffffffffffffffffffffffffffffffffffffffffff82036127c5576127c4612384565b5b600182019050919050565b7f4e487b7100000000000000000000000000000000000000000000000000000000600052601260045260246000fd5b600061280a826119c9565b9150612815836119c9565b925082612825576128246127d0565b5b828204905092915050565b600061283b826119c9565b9150612846836119c9565b925082612856576128556127d0565b5b828206905092915050565b7f4e487b7100000000000000000000000000000000000000000000000000000000600052603260045260246000fdfea26469706673582212206acc233e1e6f24217374d0254f1c83758688081a31b6b44fd907f1eb564b0b6764736f6c634300080d0033",
  "immutableReferences": {},
  "source": "// SPDX-License-Identifier: GPL-3.0\n\npragma solidity ^0.8.0;\n\nimport \"@openzeppelin/contracts/token/ERC721/ERC721.sol\";\nimport \"@openzeppelin/contracts/token/ERC721/extensions/ERC721URIStorage.sol\";\nimport \"@openzeppelin/contracts/utils/Counters.sol\";\n\ncontract NFT is ERC721URIStorage {\n    using Counters for Counters.Counter;\n    Counters.Counter private _tokenIds;\n    address marketplaceContract;\n    event NFTMinted(uint256);\n\n    constructor(address _marketplace) ERC721(\"MyToken\", \"MTKN\") {\n        marketplaceContract = _marketplace;\n    }\n\n    function mint(string memory _tokenURI) public {\n         uint256 newItemId = _tokenIds.current();\n        _mint(msg.sender, newItemId);\n\n        _setTokenURI(newItemId, _tokenURI);\n        setApprovalForAll(marketplaceContract, true);\n        _tokenIds.increment();\n    }\n\n    function getCurrentToken() public view returns (uint256) {\n        return _tokenIds.current();\n    }\n}\n\n",
  "sourcePath": "/Users/sandyinstructor/Desktop/mkt-project/contracts/NFT.sol",
  "compiler": {
    "name": "solc",
    "version": "0.8.13+commit.abaa5c0e.Emscripten.clang"
  },
  "schemaVersion": "3.4.7",
  "updatedAt": "2022-11-04T14:39:33.336Z",
  "networkType": "ethereum",
  "devdoc": {
    "kind": "dev",
    "methods": {
      "approve(address,uint256)": {
        "details": "See {IERC721-approve}."
      },
      "balanceOf(address)": {
        "details": "See {IERC721-balanceOf}."
      },
      "getApproved(uint256)": {
        "details": "See {IERC721-getApproved}."
      },
      "isApprovedForAll(address,address)": {
        "details": "See {IERC721-isApprovedForAll}."
      },
      "name()": {
        "details": "See {IERC721Metadata-name}."
      },
      "ownerOf(uint256)": {
        "details": "See {IERC721-ownerOf}."
      },
      "safeTransferFrom(address,address,uint256)": {
        "details": "See {IERC721-safeTransferFrom}."
      },
      "safeTransferFrom(address,address,uint256,bytes)": {
        "details": "See {IERC721-safeTransferFrom}."
      },
      "setApprovalForAll(address,bool)": {
        "details": "See {IERC721-setApprovalForAll}."
      },
      "supportsInterface(bytes4)": {
        "details": "See {IERC165-supportsInterface}."
      },
      "symbol()": {
        "details": "See {IERC721Metadata-symbol}."
      },
      "tokenURI(uint256)": {
        "details": "See {IERC721Metadata-tokenURI}."
      },
      "transferFrom(address,address,uint256)": {
        "details": "See {IERC721-transferFrom}."
      }
    },
    "version": 1
  },
  "userdoc": {
    "kind": "user",
    "methods": {},
    "version": 1
  }
}